{
  "_format": "hh-sol-artifact-1",
  "contractName": "EventContract",
  "sourceName": "contracts/EventContract.sol",
  "abi": [
    {
      "inputs": [
        {
          "internalType": "string",
          "name": "_eventName",
          "type": "string"
        },
        {
          "internalType": "uint256",
          "name": "_eventDate",
          "type": "uint256"
        },
        {
          "internalType": "address",
          "name": "_owner",
          "type": "address"
        }
      ],
      "stateMutability": "nonpayable",
      "type": "constructor"
    },
    {
      "inputs": [
        {
          "internalType": "address",
          "name": "owner",
          "type": "address"
        }
      ],
      "name": "OwnableInvalidOwner",
      "type": "error"
    },
    {
      "inputs": [
        {
          "internalType": "address",
          "name": "account",
          "type": "address"
        }
      ],
      "name": "OwnableUnauthorizedAccount",
      "type": "error"
    },
    {
      "inputs": [],
      "name": "ReentrancyGuardReentrantCall",
      "type": "error"
    },
    {
      "anonymous": false,
      "inputs": [
        {
          "indexed": true,
          "internalType": "address",
          "name": "previousOwner",
          "type": "address"
        },
        {
          "indexed": true,
          "internalType": "address",
          "name": "newOwner",
          "type": "address"
        }
      ],
      "name": "OwnershipTransferred",
      "type": "event"
    },
    {
      "anonymous": false,
      "inputs": [
        {
          "indexed": true,
          "internalType": "address",
          "name": "tokenAddress",
          "type": "address"
        },
        {
          "indexed": false,
          "internalType": "string",
          "name": "name",
          "type": "string"
        },
        {
          "indexed": false,
          "internalType": "uint256",
          "name": "priceInCents",
          "type": "uint256"
        }
      ],
      "name": "TokenCreated",
      "type": "event"
    },
    {
      "anonymous": false,
      "inputs": [
        {
          "indexed": true,
          "internalType": "address",
          "name": "buyer",
          "type": "address"
        },
        {
          "indexed": true,
          "internalType": "address",
          "name": "tokenAddress",
          "type": "address"
        },
        {
          "indexed": false,
          "internalType": "uint256",
          "name": "amount",
          "type": "uint256"
        },
        {
          "indexed": false,
          "internalType": "uint256",
          "name": "totalCost",
          "type": "uint256"
        }
      ],
      "name": "TokensPurchased",
      "type": "event"
    },
    {
      "anonymous": false,
      "inputs": [
        {
          "indexed": true,
          "internalType": "address",
          "name": "user",
          "type": "address"
        },
        {
          "indexed": true,
          "internalType": "address",
          "name": "tokenAddress",
          "type": "address"
        },
        {
          "indexed": false,
          "internalType": "uint256",
          "name": "amount",
          "type": "uint256"
        },
        {
          "indexed": false,
          "internalType": "uint256",
          "name": "refundAmount",
          "type": "uint256"
        }
      ],
      "name": "TokensRedeemed",
      "type": "event"
    },
    {
      "anonymous": false,
      "inputs": [
        {
          "indexed": true,
          "internalType": "address",
          "name": "from",
          "type": "address"
        },
        {
          "indexed": true,
          "internalType": "address",
          "name": "to",
          "type": "address"
        },
        {
          "indexed": true,
          "internalType": "address",
          "name": "tokenAddress",
          "type": "address"
        },
        {
          "indexed": false,
          "internalType": "uint256",
          "name": "amount",
          "type": "uint256"
        }
      ],
      "name": "TokensTransferred",
      "type": "event"
    },
    {
      "anonymous": false,
      "inputs": [
        {
          "indexed": true,
          "internalType": "address",
          "name": "vendor",
          "type": "address"
        }
      ],
      "name": "VendorAuthorized",
      "type": "event"
    },
    {
      "inputs": [
        {
          "internalType": "address",
          "name": "_vendor",
          "type": "address"
        }
      ],
      "name": "authorizeVendor",
      "outputs": [],
      "stateMutability": "nonpayable",
      "type": "function"
    },
    {
      "inputs": [
        {
          "internalType": "address",
          "name": "",
          "type": "address"
        }
      ],
      "name": "authorizedVendors",
      "outputs": [
        {
          "internalType": "bool",
          "name": "",
          "type": "bool"
        }
      ],
      "stateMutability": "view",
      "type": "function"
    },
    {
      "inputs": [
        {
          "internalType": "string",
          "name": "_name",
          "type": "string"
        },
        {
          "internalType": "uint256",
          "name": "_priceInCents",
          "type": "uint256"
        },
        {
          "internalType": "uint256",
          "name": "_initialSupply",
          "type": "uint256"
        }
      ],
      "name": "createToken",
      "outputs": [],
      "stateMutability": "nonpayable",
      "type": "function"
    },
    {
      "inputs": [],
      "name": "emergencyStop",
      "outputs": [],
      "stateMutability": "nonpayable",
      "type": "function"
    },
    {
      "inputs": [],
      "name": "eventDate",
      "outputs": [
        {
          "internalType": "uint256",
          "name": "",
          "type": "uint256"
        }
      ],
      "stateMutability": "view",
      "type": "function"
    },
    {
      "inputs": [],
      "name": "eventName",
      "outputs": [
        {
          "internalType": "string",
          "name": "",
          "type": "string"
        }
      ],
      "stateMutability": "view",
      "type": "function"
    },
    {
      "inputs": [
        {
          "internalType": "address",
          "name": "",
          "type": "address"
        }
      ],
      "name": "eventTokens",
      "outputs": [
        {
          "internalType": "string",
          "name": "name",
          "type": "string"
        },
        {
          "internalType": "uint256",
          "name": "priceInCents",
          "type": "uint256"
        },
        {
          "internalType": "address",
          "name": "tokenAddress",
          "type": "address"
        },
        {
          "internalType": "uint256",
          "name": "totalSupply",
          "type": "uint256"
        },
        {
          "internalType": "uint256",
          "name": "totalSold",
          "type": "uint256"
        }
      ],
      "stateMutability": "view",
      "type": "function"
    },
    {
      "inputs": [],
      "name": "getTokenAddresses",
      "outputs": [
        {
          "internalType": "address[]",
          "name": "",
          "type": "address[]"
        }
      ],
      "stateMutability": "view",
      "type": "function"
    },
    {
      "inputs": [
        {
          "internalType": "address",
          "name": "_tokenAddress",
          "type": "address"
        }
      ],
      "name": "getTokenInfo",
      "outputs": [
        {
          "components": [
            {
              "internalType": "string",
              "name": "name",
              "type": "string"
            },
            {
              "internalType": "uint256",
              "name": "priceInCents",
              "type": "uint256"
            },
            {
              "internalType": "address",
              "name": "tokenAddress",
              "type": "address"
            },
            {
              "internalType": "uint256",
              "name": "totalSupply",
              "type": "uint256"
            },
            {
              "internalType": "uint256",
              "name": "totalSold",
              "type": "uint256"
            }
          ],
          "internalType": "struct EventContract.EventToken",
          "name": "",
          "type": "tuple"
        }
      ],
      "stateMutability": "view",
      "type": "function"
    },
    {
      "inputs": [
        {
          "internalType": "address",
          "name": "_user",
          "type": "address"
        },
        {
          "internalType": "address",
          "name": "_tokenAddress",
          "type": "address"
        }
      ],
      "name": "getUserTokenBalance",
      "outputs": [
        {
          "internalType": "uint256",
          "name": "",
          "type": "uint256"
        }
      ],
      "stateMutability": "view",
      "type": "function"
    },
    {
      "inputs": [],
      "name": "isActive",
      "outputs": [
        {
          "internalType": "bool",
          "name": "",
          "type": "bool"
        }
      ],
      "stateMutability": "view",
      "type": "function"
    },
    {
      "inputs": [],
      "name": "owner",
      "outputs": [
        {
          "internalType": "address",
          "name": "",
          "type": "address"
        }
      ],
      "stateMutability": "view",
      "type": "function"
    },
    {
      "inputs": [
        {
          "internalType": "address",
          "name": "_tokenAddress",
          "type": "address"
        },
        {
          "internalType": "uint256",
          "name": "_amount",
          "type": "uint256"
        }
      ],
      "name": "purchaseTokens",
      "outputs": [],
      "stateMutability": "payable",
      "type": "function"
    },
    {
      "inputs": [
        {
          "internalType": "address",
          "name": "_tokenAddress",
          "type": "address"
        },
        {
          "internalType": "uint256",
          "name": "_amount",
          "type": "uint256"
        }
      ],
      "name": "redeemTokens",
      "outputs": [],
      "stateMutability": "nonpayable",
      "type": "function"
    },
    {
      "inputs": [],
      "name": "renounceOwnership",
      "outputs": [],
      "stateMutability": "nonpayable",
      "type": "function"
    },
    {
      "inputs": [],
      "name": "restartEvent",
      "outputs": [],
      "stateMutability": "nonpayable",
      "type": "function"
    },
    {
      "inputs": [
        {
          "internalType": "uint256",
          "name": "",
          "type": "uint256"
        }
      ],
      "name": "tokenAddresses",
      "outputs": [
        {
          "internalType": "address",
          "name": "",
          "type": "address"
        }
      ],
      "stateMutability": "view",
      "type": "function"
    },
    {
      "inputs": [
        {
          "internalType": "address",
          "name": "newOwner",
          "type": "address"
        }
      ],
      "name": "transferOwnership",
      "outputs": [],
      "stateMutability": "nonpayable",
      "type": "function"
    },
    {
      "inputs": [
        {
          "internalType": "address",
          "name": "_to",
          "type": "address"
        },
        {
          "internalType": "address",
          "name": "_tokenAddress",
          "type": "address"
        },
        {
          "internalType": "uint256",
          "name": "_amount",
          "type": "uint256"
        }
      ],
      "name": "transferTokens",
      "outputs": [],
      "stateMutability": "nonpayable",
      "type": "function"
    },
    {
      "inputs": [
        {
          "internalType": "address",
          "name": "",
          "type": "address"
        },
        {
          "internalType": "address",
          "name": "",
          "type": "address"
        }
      ],
      "name": "userTokenBalances",
      "outputs": [
        {
          "internalType": "uint256",
          "name": "",
          "type": "uint256"
        }
      ],
      "stateMutability": "view",
      "type": "function"
    },
    {
      "inputs": [],
      "name": "withdrawFunds",
      "outputs": [],
      "stateMutability": "nonpayable",
      "type": "function"
    }
  ],
  "bytecode": "0x60806040523480156200001157600080fd5b506040516200276538038062002765833981016040819052620000349162000121565b6001600055806001600160a01b0381166200006957604051631e4fbdf760e01b81526000600482015260240160405180910390fd5b62000074816200009c565b506002620000838482620002a1565b5050600355506004805460ff191660011790556200036d565b600180546001600160a01b038381166001600160a01b0319831681179093556040519116919082907f8be0079c531659141344cd1fd0a4f28419497f9722a3daafe3b4186f6b6457e090600090a35050565b634e487b7160e01b600052604160045260246000fd5b80516001600160a01b03811681146200011c57600080fd5b919050565b6000806000606084860312156200013757600080fd5b83516001600160401b03808211156200014f57600080fd5b818601915086601f8301126200016457600080fd5b815181811115620001795762000179620000ee565b604051601f8201601f19908116603f01168101908382118183101715620001a457620001a4620000ee565b81604052828152602093508984848701011115620001c157600080fd5b600091505b82821015620001e55784820184015181830185015290830190620001c6565b60008484830101528097505050508086015193505050620002096040850162000104565b90509250925092565b600181811c908216806200022757607f821691505b6020821081036200024857634e487b7160e01b600052602260045260246000fd5b50919050565b601f8211156200029c57600081815260208120601f850160051c81016020861015620002775750805b601f850160051c820191505b81811015620002985782815560010162000283565b5050505b505050565b81516001600160401b03811115620002bd57620002bd620000ee565b620002d581620002ce845462000212565b846200024e565b602080601f8311600181146200030d5760008415620002f45750858301515b600019600386901b1c1916600185901b17855562000298565b600085815260208120601f198616915b828110156200033e578886015182559484019460019091019084016200031d565b50858210156200035d5787850151600019600388901b60f8161c191681555b5050505050600190811b01905550565b6123e8806200037d6000396000f3fe608060405260043610620001435760003560e01c80638043c9c011620000b9578063caca97e51162000078578063caca97e51462000390578063dad7f11014620003b5578063e5df8b8414620003da578063ee8c24b814620003ff578063f2fde38b1462000426578063f7793862146200044b57600080fd5b80638043c9c014620002d35780638da5cb5b14620002fa578063951e0809146200032e578063a64b6e5f1462000346578063bec2a7c5146200036b57600080fd5b806345f2d105116200010657806345f2d105146200021b5780634bfbe5df146200026657806363a599a4146200027e578063715018a6146200029657806373f8fd4b14620002ae57600080fd5b80631f69565f146200014857806322ea2231146200018557806322f3e2d4146200019e57806324600fc314620001cb578063283f1d7e14620001e3575b600080fd5b3480156200015557600080fd5b506200016d62000167366004620011e1565b6200047f565b6040516200017c91906200124e565b60405180910390f35b6200019c62000196366004620012a8565b620005af565b005b348015620001ab57600080fd5b50600454620001ba9060ff1681565b60405190151581526020016200017c565b348015620001d857600080fd5b506200019c62000880565b348015620001f057600080fd5b506200020862000202366004620011e1565b620008c7565b6040516200017c959493929190620012d5565b3480156200022857600080fd5b50620002576200023a36600462001317565b600660209081526000928352604080842090915290825290205481565b6040519081526020016200017c565b3480156200027357600080fd5b506200025760035481565b3480156200028b57600080fd5b506200019c62000990565b348015620002a357600080fd5b506200019c620009a6565b348015620002bb57600080fd5b5062000257620002cd36600462001317565b620009be565b348015620002e057600080fd5b50620002eb620009eb565b6040516200017c91906200134f565b3480156200030757600080fd5b506001546001600160a01b03165b6040516001600160a01b0390911681526020016200017c565b3480156200033b57600080fd5b506200019c62000a81565b3480156200035357600080fd5b506200019c6200036536600462001364565b62000a9a565b3480156200037857600080fd5b506200019c6200038a366004620013bb565b62000c53565b3480156200039d57600080fd5b506200019c620003af366004620011e1565b62000dc3565b348015620003c257600080fd5b506200019c620003d4366004620012a8565b62000e19565b348015620003e757600080fd5b5062000315620003f936600462001489565b6200103a565b3480156200040c57600080fd5b506200041762001065565b6040516200017c9190620014a3565b3480156200043357600080fd5b506200019c62000445366004620011e1565b620010c9565b3480156200045857600080fd5b50620001ba6200046a366004620011e1565b60076020526000908152604090205460ff1681565b620004bb6040518060a00160405280606081526020016000815260200160006001600160a01b0316815260200160008152602001600081525090565b6001600160a01b03821660009081526005602052604090819020815160a08101909252805482908290620004ef90620014f2565b80601f01602080910402602001604051908101604052809291908181526020018280546200051d90620014f2565b80156200056e5780601f1062000542576101008083540402835291602001916200056e565b820191906000526020600020905b8154815290600101906020018083116200055057829003601f168201915b50505091835250506001820154602082015260028201546001600160a01b031660408201526003820154606082015260049091015460809091015292915050565b620005b96200110a565b60045460ff16620006075760405162461bcd60e51b81526020600482015260136024820152724576656e74206973206e6f742061637469766560681b60448201526064015b60405180910390fd5b6001600160a01b03828116600090815260056020526040902060020154166200066a5760405162461bcd60e51b8152602060048201526014602482015273151bdad95b88191bd95cc81b9bdd08195e1a5cdd60621b6044820152606401620005fe565b600081116200068d5760405162461bcd60e51b8152600401620005fe906200152e565b6001600160a01b038216600090815260056020526040902060038101546004820154620006bc9084906200157b565b11156200070c5760405162461bcd60e51b815260206004820152601b60248201527f4e6f7420656e6f75676820746f6b656e7320617661696c61626c6500000000006044820152606401620005fe565b6000606483836001015462000722919062001591565b6200073690670de0b6b3a764000062001591565b620007429190620015ab565b9050803410156200078d5760405162461bcd60e51b8152602060048201526014602482015273125b9cdd59999a58da595b9d081c185e5b595b9d60621b6044820152606401620005fe565b3360009081526006602090815260408083206001600160a01b038816845290915281208054859290620007c29084906200157b565b9250508190555082826004016000828254620007df91906200157b565b9091555050348110156200082857336108fc620007fd8334620015ce565b6040518115909202916000818181858888f1935050505015801562000826573d6000803e3d6000fd5b505b60408051848152602081018390526001600160a01b0386169133917f6faf93231a456e552dbc9961f58d9713ee4f2e69d15f1975b050ef0911053a7b91015b60405180910390a350506200087c6001600055565b5050565b6200088a62001135565b6001546040516001600160a01b03909116904780156108fc02916000818181858888f19350505050158015620008c4573d6000803e3d6000fd5b50565b600560205260009081526040902080548190620008e490620014f2565b80601f01602080910402602001604051908101604052809291908181526020018280546200091290620014f2565b8015620009635780601f10620009375761010080835404028352916020019162000963565b820191906000526020600020905b8154815290600101906020018083116200094557829003601f168201915b50505050600183015460028401546003850154600490950154939491936001600160a01b03909116925085565b6200099a62001135565b6004805460ff19169055565b620009b062001135565b620009bc600062001164565b565b6001600160a01b038083166000908152600660209081526040808320938516835292905220545b92915050565b60028054620009fa90620014f2565b80601f016020809104026020016040519081016040528092919081815260200182805462000a2890620014f2565b801562000a795780601f1062000a4d5761010080835404028352916020019162000a79565b820191906000526020600020905b81548152906001019060200180831162000a5b57829003601f168201915b505050505081565b62000a8b62001135565b6004805460ff19166001179055565b62000aa46200110a565b60045460ff1662000aee5760405162461bcd60e51b81526020600482015260136024820152724576656e74206973206e6f742061637469766560681b6044820152606401620005fe565b3360009081526006602090815260408083206001600160a01b038616845290915290205481111562000b635760405162461bcd60e51b815260206004820152601a60248201527f496e73756666696369656e7420746f6b656e2062616c616e63650000000000006044820152606401620005fe565b6000811162000b865760405162461bcd60e51b8152600401620005fe906200152e565b3360009081526006602090815260408083206001600160a01b03861684529091528120805483929062000bbb908490620015ce565b90915550506001600160a01b0380841660009081526006602090815260408083209386168352929052908120805483929062000bf99084906200157b565b90915550506040518181526001600160a01b03808416919085169033907f70c5f97fd0068e96984b8116fe83eefbff3b91244565bf311a3cba619b4ecbc79060200160405180910390a462000c4e6001600055565b505050565b62000c5d62001135565b60008384833060405162000c7190620011b6565b62000c809493929190620015e4565b604051809103906000f08015801562000c9d573d6000803e3d6000fd5b506040805160a08101825286815260208082018790526001600160a01b0384168284018190526060830187905260006080840181905290815260059091529190912081519293508392819062000cf4908262001681565b5060208201516001808301919091556040808401516002840180546001600160a01b039283166001600160a01b031991821617909155606086015160038601556080909501516004909401939093556008805492830181556000527ff3f7a9fe364faab93b216da50a3214154f22a0a2b415b23a84c8169e8b636ee3909101805492851692909316821790925590517f245219c91d644a43a38d1479b1e5a7cc4b5c371d7049bff40dfd12c136c4e72a9062000db490889088906200174e565b60405180910390a25050505050565b62000dcd62001135565b6001600160a01b038116600081815260076020526040808220805460ff19166001179055517f3015ae01b4334d1ac8c33010ea96f07356176ca023f850b6af1656be900db2509190a250565b62000e236200110a565b3360009081526006602090815260408083206001600160a01b038616845290915290205481111562000e985760405162461bcd60e51b815260206004820152601a60248201527f496e73756666696369656e7420746f6b656e2062616c616e63650000000000006044820152606401620005fe565b6000811162000ebb5760405162461bcd60e51b8152600401620005fe906200152e565b6001600160a01b0382166000908152600560205260408120600181015490919060649062000eeb90859062001591565b62000eff90670de0b6b3a764000062001591565b62000f0b9190620015ab565b90508047101562000f705760405162461bcd60e51b815260206004820152602860248201527f496e73756666696369656e7420636f6e74726163742062616c616e636520666f6044820152671c881c99599d5b9960c21b6064820152608401620005fe565b3360009081526006602090815260408083206001600160a01b03881684529091528120805485929062000fa5908490620015ce565b925050819055508282600401600082825462000fc29190620015ce565b9091555050604051339082156108fc029083906000818181858888f1935050505015801562000ff5573d6000803e3d6000fd5b5060408051848152602081018390526001600160a01b0386169133917f0bb7d7161f80ca4cd98ff0298ff3ba71bb1a2f4e100340b6fc696d6caa432181910162000867565b600881815481106200104b57600080fd5b6000918252602090912001546001600160a01b0316905081565b60606008805480602002602001604051908101604052809291908181526020018280548015620010bf57602002820191906000526020600020905b81546001600160a01b03168152600190910190602001808311620010a0575b5050505050905090565b620010d362001135565b6001600160a01b038116620010ff57604051631e4fbdf760e01b815260006004820152602401620005fe565b620008c48162001164565b6002600054036200112e57604051633ee5aeb560e01b815260040160405180910390fd5b6002600055565b6001546001600160a01b03163314620009bc5760405163118cdaa760e01b8152336004820152602401620005fe565b600180546001600160a01b038381166001600160a01b0319831681179093556040519116919082907f8be0079c531659141344cd1fd0a4f28419497f9722a3daafe3b4186f6b6457e090600090a35050565b610c40806200177383390190565b80356001600160a01b0381168114620011dc57600080fd5b919050565b600060208284031215620011f457600080fd5b620011ff82620011c4565b9392505050565b6000815180845260005b818110156200122e5760208185018101518683018201520162001210565b506000602082860101526020601f19601f83011685010191505092915050565b602081526000825160a060208401526200126c60c084018262001206565b90506020840151604084015260018060a01b03604085015116606084015260608401516080840152608084015160a08401528091505092915050565b60008060408385031215620012bc57600080fd5b620012c783620011c4565b946020939093013593505050565b60a081526000620012ea60a083018862001206565b6020830196909652506001600160a01b039390931660408401526060830191909152608090910152919050565b600080604083850312156200132b57600080fd5b6200133683620011c4565b91506200134660208401620011c4565b90509250929050565b602081526000620011ff602083018462001206565b6000806000606084860312156200137a57600080fd5b6200138584620011c4565b92506200139560208501620011c4565b9150604084013590509250925092565b634e487b7160e01b600052604160045260246000fd5b600080600060608486031215620013d157600080fd5b833567ffffffffffffffff80821115620013ea57600080fd5b818601915086601f830112620013ff57600080fd5b813581811115620014145762001414620013a5565b604051601f8201601f19908116603f011681019083821181831017156200143f576200143f620013a5565b816040528281528960208487010111156200145957600080fd5b82602086016020830137600060208483010152809750505050505060208401359150604084013590509250925092565b6000602082840312156200149c57600080fd5b5035919050565b6020808252825182820181905260009190848201906040850190845b81811015620014e65783516001600160a01b031683529284019291840191600101620014bf565b50909695505050505050565b600181811c908216806200150757607f821691505b6020821081036200152857634e487b7160e01b600052602260045260246000fd5b50919050565b6020808252601d908201527f416d6f756e74206d7573742062652067726561746572207468616e2030000000604082015260600190565b634e487b7160e01b600052601160045260246000fd5b80820180821115620009e557620009e562001565565b8082028115828204841417620009e557620009e562001565565b600082620015c957634e487b7160e01b600052601260045260246000fd5b500490565b81810381811115620009e557620009e562001565565b608081526000620015f9608083018762001206565b82810360208401526200160d818762001206565b604084019590955250506001600160a01b039190911660609091015292915050565b601f82111562000c4e57600081815260208120601f850160051c81016020861015620016585750805b601f850160051c820191505b81811015620016795782815560010162001664565b505050505050565b815167ffffffffffffffff8111156200169e576200169e620013a5565b620016b681620016af8454620014f2565b846200162f565b602080601f831160018114620016ee5760008415620016d55750858301515b600019600386901b1c1916600185901b17855562001679565b600085815260208120601f198616915b828110156200171f57888601518255948401946001909101908401620016fe565b50858210156200173e5787850151600019600388901b60f8161c191681555b5050505050600190811b01905550565b60408152600062001763604083018562001206565b9050826020830152939250505056fe60806040523480156200001157600080fd5b5060405162000c4038038062000c408339810160408190526200003491620002c1565b83836003620000448382620003e5565b506004620000538282620003e5565b5050600580546001600160a01b0319166001600160a01b038416179055506200007d818362000087565b50505050620004d9565b6001600160a01b038216620000b75760405163ec442f0560e01b8152600060048201526024015b60405180910390fd5b620000c560008383620000c9565b5050565b6001600160a01b038316620000f8578060026000828254620000ec9190620004b1565b909155506200016c9050565b6001600160a01b038316600090815260208190526040902054818110156200014d5760405163391434e360e21b81526001600160a01b03851660048201526024810182905260448101839052606401620000ae565b6001600160a01b03841660009081526020819052604090209082900390555b6001600160a01b0382166200018a57600280548290039055620001a9565b6001600160a01b03821660009081526020819052604090208054820190555b816001600160a01b0316836001600160a01b03167fddf252ad1be2c89b69c2b068fc378daa952ba7f163c4a11628f55a4df523b3ef83604051620001ef91815260200190565b60405180910390a3505050565b634e487b7160e01b600052604160045260246000fd5b600082601f8301126200022457600080fd5b81516001600160401b0380821115620002415762000241620001fc565b604051601f8301601f19908116603f011681019082821181831017156200026c576200026c620001fc565b816040528381526020925086838588010111156200028957600080fd5b600091505b83821015620002ad57858201830151818301840152908201906200028e565b600093810190920192909252949350505050565b60008060008060808587031215620002d857600080fd5b84516001600160401b0380821115620002f057600080fd5b620002fe8883890162000212565b955060208701519150808211156200031557600080fd5b50620003248782880162000212565b60408701516060880151919550935090506001600160a01b03811681146200034b57600080fd5b939692955090935050565b600181811c908216806200036b57607f821691505b6020821081036200038c57634e487b7160e01b600052602260045260246000fd5b50919050565b601f821115620003e057600081815260208120601f850160051c81016020861015620003bb5750805b601f850160051c820191505b81811015620003dc57828155600101620003c7565b5050505b505050565b81516001600160401b03811115620004015762000401620001fc565b620004198162000412845462000356565b8462000392565b602080601f831160018114620004515760008415620004385750858301515b600019600386901b1c1916600185901b178555620003dc565b600085815260208120601f198616915b82811015620004825788860151825594840194600190910190840162000461565b5085821015620004a15787850151600019600388901b60f8161c191681555b5050505050600190811b01905550565b80820180821115620004d357634e487b7160e01b600052601160045260246000fd5b92915050565b61075780620004e96000396000f3fe608060405234801561001057600080fd5b506004361061009e5760003560e01c806370a082311161006657806370a082311461011857806395d89b4114610141578063a9059cbb14610149578063dd62ed3e1461015c578063e274fd241461019557600080fd5b806306fdde03146100a3578063095ea7b3146100c157806318160ddd146100e457806323b872dd146100f6578063313ce56714610109575b600080fd5b6100ab6101c0565b6040516100b891906105a1565b60405180910390f35b6100d46100cf36600461060b565b610252565b60405190151581526020016100b8565b6002545b6040519081526020016100b8565b6100d4610104366004610635565b61026c565b604051601281526020016100b8565b6100e8610126366004610671565b6001600160a01b031660009081526020819052604090205490565b6100ab610290565b6100d461015736600461060b565b61029f565b6100e861016a366004610693565b6001600160a01b03918216600090815260016020908152604080832093909416825291909152205490565b6005546101a8906001600160a01b031681565b6040516001600160a01b0390911681526020016100b8565b6060600380546101cf906106c6565b80601f01602080910402602001604051908101604052809291908181526020018280546101fb906106c6565b80156102485780601f1061021d57610100808354040283529160200191610248565b820191906000526020600020905b81548152906001019060200180831161022b57829003601f168201915b5050505050905090565b6000336102608185856102ad565b60019150505b92915050565b60003361027a8582856102bf565b610285858585610343565b506001949350505050565b6060600480546101cf906106c6565b600033610260818585610343565b6102ba83838360016103a2565b505050565b6001600160a01b0383811660009081526001602090815260408083209386168352929052205460001981101561033d578181101561032e57604051637dc7a0d960e11b81526001600160a01b038416600482015260248101829052604481018390526064015b60405180910390fd5b61033d848484840360006103a2565b50505050565b6001600160a01b03831661036d57604051634b637e8f60e11b815260006004820152602401610325565b6001600160a01b0382166103975760405163ec442f0560e01b815260006004820152602401610325565b6102ba838383610477565b6001600160a01b0384166103cc5760405163e602df0560e01b815260006004820152602401610325565b6001600160a01b0383166103f657604051634a1406b160e11b815260006004820152602401610325565b6001600160a01b038085166000908152600160209081526040808320938716835292905220829055801561033d57826001600160a01b0316846001600160a01b03167f8c5be1e5ebec7d5bd14f71427d1e84f3dd0314c0f7b2291e5b200ac8c7c3b9258460405161046991815260200190565b60405180910390a350505050565b6001600160a01b0383166104a25780600260008282546104979190610700565b909155506105149050565b6001600160a01b038316600090815260208190526040902054818110156104f55760405163391434e360e21b81526001600160a01b03851660048201526024810182905260448101839052606401610325565b6001600160a01b03841660009081526020819052604090209082900390555b6001600160a01b0382166105305760028054829003905561054f565b6001600160a01b03821660009081526020819052604090208054820190555b816001600160a01b0316836001600160a01b03167fddf252ad1be2c89b69c2b068fc378daa952ba7f163c4a11628f55a4df523b3ef8360405161059491815260200190565b60405180910390a3505050565b600060208083528351808285015260005b818110156105ce578581018301518582016040015282016105b2565b506000604082860101526040601f19601f8301168501019250505092915050565b80356001600160a01b038116811461060657600080fd5b919050565b6000806040838503121561061e57600080fd5b610627836105ef565b946020939093013593505050565b60008060006060848603121561064a57600080fd5b610653846105ef565b9250610661602085016105ef565b9150604084013590509250925092565b60006020828403121561068357600080fd5b61068c826105ef565b9392505050565b600080604083850312156106a657600080fd5b6106af836105ef565b91506106bd602084016105ef565b90509250929050565b600181811c908216806106da57607f821691505b6020821081036106fa57634e487b7160e01b600052602260045260246000fd5b50919050565b8082018082111561026657634e487b7160e01b600052601160045260246000fdfea264697066735822122021ddfc06d21d43dcde4d413ad95ed4e7034653a7370d79baf184b2665ddc30c064736f6c63430008140033a2646970667358221220ebd7a965985a863ef7066e06cad839c720865cb9f00b920f1c0c242fbbf8776d64736f6c63430008140033",
  "linkReferences": {},
  "deployedLinkReferences": {}
}