{
  "_format": "hh-sol-artifact-1",
  "contractName": "EventContract",
  "sourceName": "contracts/EventContract.sol",
  "abi": [
    {
      "inputs": [
        {
          "internalType": "string",
          "name": "_eventName",
          "type": "string"
        },
        {
          "internalType": "uint256",
          "name": "_eventDate",
          "type": "uint256"
        },
        {
          "internalType": "address",
          "name": "_owner",
          "type": "address"
        }
      ],
      "stateMutability": "nonpayable",
      "type": "constructor"
    },
    {
      "anonymous": false,
      "inputs": [
        {
          "indexed": true,
          "internalType": "address",
          "name": "previousOwner",
          "type": "address"
        },
        {
          "indexed": true,
          "internalType": "address",
          "name": "newOwner",
          "type": "address"
        }
      ],
      "name": "OwnershipTransferred",
      "type": "event"
    },
    {
      "anonymous": false,
      "inputs": [
        {
          "indexed": true,
          "internalType": "address",
          "name": "tokenAddress",
          "type": "address"
        },
        {
          "indexed": false,
          "internalType": "string",
          "name": "name",
          "type": "string"
        },
        {
          "indexed": false,
          "internalType": "uint256",
          "name": "priceInCents",
          "type": "uint256"
        }
      ],
      "name": "TokenCreated",
      "type": "event"
    },
    {
      "anonymous": false,
      "inputs": [
        {
          "indexed": true,
          "internalType": "address",
          "name": "buyer",
          "type": "address"
        },
        {
          "indexed": true,
          "internalType": "address",
          "name": "tokenAddress",
          "type": "address"
        },
        {
          "indexed": false,
          "internalType": "uint256",
          "name": "amount",
          "type": "uint256"
        },
        {
          "indexed": false,
          "internalType": "uint256",
          "name": "totalCost",
          "type": "uint256"
        }
      ],
      "name": "TokensPurchased",
      "type": "event"
    },
    {
      "anonymous": false,
      "inputs": [
        {
          "indexed": true,
          "internalType": "address",
          "name": "user",
          "type": "address"
        },
        {
          "indexed": true,
          "internalType": "address",
          "name": "tokenAddress",
          "type": "address"
        },
        {
          "indexed": false,
          "internalType": "uint256",
          "name": "amount",
          "type": "uint256"
        },
        {
          "indexed": false,
          "internalType": "uint256",
          "name": "refundAmount",
          "type": "uint256"
        }
      ],
      "name": "TokensRedeemed",
      "type": "event"
    },
    {
      "anonymous": false,
      "inputs": [
        {
          "indexed": true,
          "internalType": "address",
          "name": "from",
          "type": "address"
        },
        {
          "indexed": true,
          "internalType": "address",
          "name": "to",
          "type": "address"
        },
        {
          "indexed": true,
          "internalType": "address",
          "name": "tokenAddress",
          "type": "address"
        },
        {
          "indexed": false,
          "internalType": "uint256",
          "name": "amount",
          "type": "uint256"
        }
      ],
      "name": "TokensTransferred",
      "type": "event"
    },
    {
      "anonymous": false,
      "inputs": [
        {
          "indexed": true,
          "internalType": "address",
          "name": "vendor",
          "type": "address"
        }
      ],
      "name": "VendorAuthorized",
      "type": "event"
    },
    {
      "inputs": [
        {
          "internalType": "address",
          "name": "_vendor",
          "type": "address"
        }
      ],
      "name": "authorizeVendor",
      "outputs": [],
      "stateMutability": "nonpayable",
      "type": "function"
    },
    {
      "inputs": [
        {
          "internalType": "address",
          "name": "",
          "type": "address"
        }
      ],
      "name": "authorizedVendors",
      "outputs": [
        {
          "internalType": "bool",
          "name": "",
          "type": "bool"
        }
      ],
      "stateMutability": "view",
      "type": "function"
    },
    {
      "inputs": [
        {
          "internalType": "string",
          "name": "_name",
          "type": "string"
        },
        {
          "internalType": "uint256",
          "name": "_priceInCents",
          "type": "uint256"
        },
        {
          "internalType": "uint256",
          "name": "_initialSupply",
          "type": "uint256"
        }
      ],
      "name": "createToken",
      "outputs": [],
      "stateMutability": "nonpayable",
      "type": "function"
    },
    {
      "inputs": [],
      "name": "emergencyStop",
      "outputs": [],
      "stateMutability": "nonpayable",
      "type": "function"
    },
    {
      "inputs": [],
      "name": "eventDate",
      "outputs": [
        {
          "internalType": "uint256",
          "name": "",
          "type": "uint256"
        }
      ],
      "stateMutability": "view",
      "type": "function"
    },
    {
      "inputs": [],
      "name": "eventName",
      "outputs": [
        {
          "internalType": "string",
          "name": "",
          "type": "string"
        }
      ],
      "stateMutability": "view",
      "type": "function"
    },
    {
      "inputs": [
        {
          "internalType": "address",
          "name": "",
          "type": "address"
        }
      ],
      "name": "eventTokens",
      "outputs": [
        {
          "internalType": "string",
          "name": "name",
          "type": "string"
        },
        {
          "internalType": "uint256",
          "name": "priceInCents",
          "type": "uint256"
        },
        {
          "internalType": "address",
          "name": "tokenAddress",
          "type": "address"
        },
        {
          "internalType": "uint256",
          "name": "totalSupply",
          "type": "uint256"
        },
        {
          "internalType": "uint256",
          "name": "totalSold",
          "type": "uint256"
        }
      ],
      "stateMutability": "view",
      "type": "function"
    },
    {
      "inputs": [],
      "name": "getTokenAddresses",
      "outputs": [
        {
          "internalType": "address[]",
          "name": "",
          "type": "address[]"
        }
      ],
      "stateMutability": "view",
      "type": "function"
    },
    {
      "inputs": [
        {
          "internalType": "address",
          "name": "_tokenAddress",
          "type": "address"
        }
      ],
      "name": "getTokenInfo",
      "outputs": [
        {
          "components": [
            {
              "internalType": "string",
              "name": "name",
              "type": "string"
            },
            {
              "internalType": "uint256",
              "name": "priceInCents",
              "type": "uint256"
            },
            {
              "internalType": "address",
              "name": "tokenAddress",
              "type": "address"
            },
            {
              "internalType": "uint256",
              "name": "totalSupply",
              "type": "uint256"
            },
            {
              "internalType": "uint256",
              "name": "totalSold",
              "type": "uint256"
            }
          ],
          "internalType": "struct EventContract.EventToken",
          "name": "",
          "type": "tuple"
        }
      ],
      "stateMutability": "view",
      "type": "function"
    },
    {
      "inputs": [
        {
          "internalType": "address",
          "name": "_user",
          "type": "address"
        },
        {
          "internalType": "address",
          "name": "_tokenAddress",
          "type": "address"
        }
      ],
      "name": "getUserTokenBalance",
      "outputs": [
        {
          "internalType": "uint256",
          "name": "",
          "type": "uint256"
        }
      ],
      "stateMutability": "view",
      "type": "function"
    },
    {
      "inputs": [],
      "name": "isActive",
      "outputs": [
        {
          "internalType": "bool",
          "name": "",
          "type": "bool"
        }
      ],
      "stateMutability": "view",
      "type": "function"
    },
    {
      "inputs": [],
      "name": "owner",
      "outputs": [
        {
          "internalType": "address",
          "name": "",
          "type": "address"
        }
      ],
      "stateMutability": "view",
      "type": "function"
    },
    {
      "inputs": [
        {
          "internalType": "address",
          "name": "_tokenAddress",
          "type": "address"
        },
        {
          "internalType": "uint256",
          "name": "_amount",
          "type": "uint256"
        }
      ],
      "name": "purchaseTokens",
      "outputs": [],
      "stateMutability": "payable",
      "type": "function"
    },
    {
      "inputs": [
        {
          "internalType": "address",
          "name": "_tokenAddress",
          "type": "address"
        },
        {
          "internalType": "uint256",
          "name": "_amount",
          "type": "uint256"
        }
      ],
      "name": "redeemTokens",
      "outputs": [],
      "stateMutability": "nonpayable",
      "type": "function"
    },
    {
      "inputs": [],
      "name": "renounceOwnership",
      "outputs": [],
      "stateMutability": "nonpayable",
      "type": "function"
    },
    {
      "inputs": [],
      "name": "restartEvent",
      "outputs": [],
      "stateMutability": "nonpayable",
      "type": "function"
    },
    {
      "inputs": [
        {
          "internalType": "uint256",
          "name": "",
          "type": "uint256"
        }
      ],
      "name": "tokenAddresses",
      "outputs": [
        {
          "internalType": "address",
          "name": "",
          "type": "address"
        }
      ],
      "stateMutability": "view",
      "type": "function"
    },
    {
      "inputs": [
        {
          "internalType": "address",
          "name": "newOwner",
          "type": "address"
        }
      ],
      "name": "transferOwnership",
      "outputs": [],
      "stateMutability": "nonpayable",
      "type": "function"
    },
    {
      "inputs": [
        {
          "internalType": "address",
          "name": "_to",
          "type": "address"
        },
        {
          "internalType": "address",
          "name": "_tokenAddress",
          "type": "address"
        },
        {
          "internalType": "uint256",
          "name": "_amount",
          "type": "uint256"
        }
      ],
      "name": "transferTokens",
      "outputs": [],
      "stateMutability": "nonpayable",
      "type": "function"
    },
    {
      "inputs": [
        {
          "internalType": "address",
          "name": "",
          "type": "address"
        },
        {
          "internalType": "address",
          "name": "",
          "type": "address"
        }
      ],
      "name": "userTokenBalances",
      "outputs": [
        {
          "internalType": "uint256",
          "name": "",
          "type": "uint256"
        }
      ],
      "stateMutability": "view",
      "type": "function"
    },
    {
      "inputs": [],
      "name": "withdrawFunds",
      "outputs": [],
      "stateMutability": "nonpayable",
      "type": "function"
    }
  ],
  "bytecode": "0x60806040523480156200001157600080fd5b5060405162002860380380620028608339810160408190526200003491620000fe565b6001600055620000443362000079565b60026200005284826200027e565b5060038290556004805460ff19166001179055620000708162000079565b5050506200034a565b600180546001600160a01b038381166001600160a01b0319831681179093556040519116919082907f8be0079c531659141344cd1fd0a4f28419497f9722a3daafe3b4186f6b6457e090600090a35050565b634e487b7160e01b600052604160045260246000fd5b80516001600160a01b0381168114620000f957600080fd5b919050565b6000806000606084860312156200011457600080fd5b83516001600160401b03808211156200012c57600080fd5b818601915086601f8301126200014157600080fd5b815181811115620001565762000156620000cb565b604051601f8201601f19908116603f01168101908382118183101715620001815762000181620000cb565b816040528281526020935089848487010111156200019e57600080fd5b600091505b82821015620001c25784820184015181830185015290830190620001a3565b60008484830101528097505050508086015193505050620001e660408501620000e1565b90509250925092565b600181811c908216806200020457607f821691505b6020821081036200022557634e487b7160e01b600052602260045260246000fd5b50919050565b601f8211156200027957600081815260208120601f850160051c81016020861015620002545750805b601f850160051c820191505b81811015620002755782815560010162000260565b5050505b505050565b81516001600160401b038111156200029a576200029a620000cb565b620002b281620002ab8454620001ef565b846200022b565b602080601f831160018114620002ea5760008415620002d15750858301515b600019600386901b1c1916600185901b17855562000275565b600085815260208120601f198616915b828110156200031b57888601518255948401946001909101908401620002fa565b50858210156200033a5787850151600019600388901b60f8161c191681555b5050505050600190811b01905550565b612506806200035a6000396000f3fe608060405260043610620001435760003560e01c80638043c9c011620000b9578063caca97e51162000078578063caca97e51462000390578063dad7f11014620003b5578063e5df8b8414620003da578063ee8c24b814620003ff578063f2fde38b1462000426578063f7793862146200044b57600080fd5b80638043c9c014620002d35780638da5cb5b14620002fa578063951e0809146200032e578063a64b6e5f1462000346578063bec2a7c5146200036b57600080fd5b806345f2d105116200010657806345f2d105146200021b5780634bfbe5df146200026657806363a599a4146200027e578063715018a6146200029657806373f8fd4b14620002ae57600080fd5b80631f69565f146200014857806322ea2231146200018557806322f3e2d4146200019e57806324600fc314620001cb578063283f1d7e14620001e3575b600080fd5b3480156200015557600080fd5b506200016d6200016736600462001279565b6200047f565b6040516200017c9190620012e6565b60405180910390f35b6200019c6200019636600462001340565b620005af565b005b348015620001ab57600080fd5b50600454620001ba9060ff1681565b60405190151581526020016200017c565b348015620001d857600080fd5b506200019c62000880565b348015620001f057600080fd5b50620002086200020236600462001279565b620008c7565b6040516200017c9594939291906200136d565b3480156200022857600080fd5b50620002576200023a366004620013af565b600660209081526000928352604080842090915290825290205481565b6040519081526020016200017c565b3480156200027357600080fd5b506200025760035481565b3480156200028b57600080fd5b506200019c62000990565b348015620002a357600080fd5b506200019c620009a6565b348015620002bb57600080fd5b5062000257620002cd366004620013af565b620009be565b348015620002e057600080fd5b50620002eb620009eb565b6040516200017c9190620013e7565b3480156200030757600080fd5b506001546001600160a01b03165b6040516001600160a01b0390911681526020016200017c565b3480156200033b57600080fd5b506200019c62000a81565b3480156200035357600080fd5b506200019c62000365366004620013fc565b62000a9a565b3480156200037857600080fd5b506200019c6200038a36600462001453565b62000c53565b3480156200039d57600080fd5b506200019c620003af36600462001279565b62000dc3565b348015620003c257600080fd5b506200019c620003d436600462001340565b62000e19565b348015620003e757600080fd5b5062000315620003f936600462001521565b6200103a565b3480156200040c57600080fd5b506200041762001065565b6040516200017c91906200153b565b3480156200043357600080fd5b506200019c6200044536600462001279565b620010c9565b3480156200045857600080fd5b50620001ba6200046a36600462001279565b60076020526000908152604090205460ff1681565b620004bb6040518060a00160405280606081526020016000815260200160006001600160a01b0316815260200160008152602001600081525090565b6001600160a01b03821660009081526005602052604090819020815160a08101909252805482908290620004ef906200158a565b80601f01602080910402602001604051908101604052809291908181526020018280546200051d906200158a565b80156200056e5780601f1062000542576101008083540402835291602001916200056e565b820191906000526020600020905b8154815290600101906020018083116200055057829003601f168201915b50505091835250506001820154602082015260028201546001600160a01b031660408201526003820154606082015260049091015460809091015292915050565b620005b962001145565b60045460ff16620006075760405162461bcd60e51b81526020600482015260136024820152724576656e74206973206e6f742061637469766560681b60448201526064015b60405180910390fd5b6001600160a01b03828116600090815260056020526040902060020154166200066a5760405162461bcd60e51b8152602060048201526014602482015273151bdad95b88191bd95cc81b9bdd08195e1a5cdd60621b6044820152606401620005fe565b600081116200068d5760405162461bcd60e51b8152600401620005fe90620015c6565b6001600160a01b038216600090815260056020526040902060038101546004820154620006bc90849062001613565b11156200070c5760405162461bcd60e51b815260206004820152601b60248201527f4e6f7420656e6f75676820746f6b656e7320617661696c61626c6500000000006044820152606401620005fe565b6000606483836001015462000722919062001629565b6200073690670de0b6b3a764000062001629565b62000742919062001643565b9050803410156200078d5760405162461bcd60e51b8152602060048201526014602482015273125b9cdd59999a58da595b9d081c185e5b595b9d60621b6044820152606401620005fe565b3360009081526006602090815260408083206001600160a01b038816845290915281208054859290620007c290849062001613565b9250508190555082826004016000828254620007df919062001613565b9091555050348110156200082857336108fc620007fd833462001666565b6040518115909202916000818181858888f1935050505015801562000826573d6000803e3d6000fd5b505b60408051848152602081018390526001600160a01b0386169133917f6faf93231a456e552dbc9961f58d9713ee4f2e69d15f1975b050ef0911053a7b91015b60405180910390a350506200087c6001600055565b5050565b6200088a620011a0565b6001546040516001600160a01b03909116904780156108fc02916000818181858888f19350505050158015620008c4573d6000803e3d6000fd5b50565b600560205260009081526040902080548190620008e4906200158a565b80601f016020809104026020016040519081016040528092919081815260200182805462000912906200158a565b8015620009635780601f10620009375761010080835404028352916020019162000963565b820191906000526020600020905b8154815290600101906020018083116200094557829003601f168201915b50505050600183015460028401546003850154600490950154939491936001600160a01b03909116925085565b6200099a620011a0565b6004805460ff19169055565b620009b0620011a0565b620009bc6000620011fc565b565b6001600160a01b038083166000908152600660209081526040808320938516835292905220545b92915050565b60028054620009fa906200158a565b80601f016020809104026020016040519081016040528092919081815260200182805462000a28906200158a565b801562000a795780601f1062000a4d5761010080835404028352916020019162000a79565b820191906000526020600020905b81548152906001019060200180831162000a5b57829003601f168201915b505050505081565b62000a8b620011a0565b6004805460ff19166001179055565b62000aa462001145565b60045460ff1662000aee5760405162461bcd60e51b81526020600482015260136024820152724576656e74206973206e6f742061637469766560681b6044820152606401620005fe565b3360009081526006602090815260408083206001600160a01b038616845290915290205481111562000b635760405162461bcd60e51b815260206004820152601a60248201527f496e73756666696369656e7420746f6b656e2062616c616e63650000000000006044820152606401620005fe565b6000811162000b865760405162461bcd60e51b8152600401620005fe90620015c6565b3360009081526006602090815260408083206001600160a01b03861684529091528120805483929062000bbb90849062001666565b90915550506001600160a01b0380841660009081526006602090815260408083209386168352929052908120805483929062000bf990849062001613565b90915550506040518181526001600160a01b03808416919085169033907f70c5f97fd0068e96984b8116fe83eefbff3b91244565bf311a3cba619b4ecbc79060200160405180910390a462000c4e6001600055565b505050565b62000c5d620011a0565b60008384833060405162000c71906200124e565b62000c8094939291906200167c565b604051809103906000f08015801562000c9d573d6000803e3d6000fd5b506040805160a08101825286815260208082018790526001600160a01b0384168284018190526060830187905260006080840181905290815260059091529190912081519293508392819062000cf4908262001719565b5060208201516001808301919091556040808401516002840180546001600160a01b039283166001600160a01b031991821617909155606086015160038601556080909501516004909401939093556008805492830181556000527ff3f7a9fe364faab93b216da50a3214154f22a0a2b415b23a84c8169e8b636ee3909101805492851692909316821790925590517f245219c91d644a43a38d1479b1e5a7cc4b5c371d7049bff40dfd12c136c4e72a9062000db49088908890620017e6565b60405180910390a25050505050565b62000dcd620011a0565b6001600160a01b038116600081815260076020526040808220805460ff19166001179055517f3015ae01b4334d1ac8c33010ea96f07356176ca023f850b6af1656be900db2509190a250565b62000e2362001145565b3360009081526006602090815260408083206001600160a01b038616845290915290205481111562000e985760405162461bcd60e51b815260206004820152601a60248201527f496e73756666696369656e7420746f6b656e2062616c616e63650000000000006044820152606401620005fe565b6000811162000ebb5760405162461bcd60e51b8152600401620005fe90620015c6565b6001600160a01b0382166000908152600560205260408120600181015490919060649062000eeb90859062001629565b62000eff90670de0b6b3a764000062001629565b62000f0b919062001643565b90508047101562000f705760405162461bcd60e51b815260206004820152602860248201527f496e73756666696369656e7420636f6e74726163742062616c616e636520666f6044820152671c881c99599d5b9960c21b6064820152608401620005fe565b3360009081526006602090815260408083206001600160a01b03881684529091528120805485929062000fa590849062001666565b925050819055508282600401600082825462000fc2919062001666565b9091555050604051339082156108fc029083906000818181858888f1935050505015801562000ff5573d6000803e3d6000fd5b5060408051848152602081018390526001600160a01b0386169133917f0bb7d7161f80ca4cd98ff0298ff3ba71bb1a2f4e100340b6fc696d6caa432181910162000867565b600881815481106200104b57600080fd5b6000918252602090912001546001600160a01b0316905081565b60606008805480602002602001604051908101604052809291908181526020018280548015620010bf57602002820191906000526020600020905b81546001600160a01b03168152600190910190602001808311620010a0575b5050505050905090565b620010d3620011a0565b6001600160a01b0381166200113a5760405162461bcd60e51b815260206004820152602660248201527f4f776e61626c653a206e6577206f776e657220697320746865207a65726f206160448201526564647265737360d01b6064820152608401620005fe565b620008c481620011fc565b600260005403620011995760405162461bcd60e51b815260206004820152601f60248201527f5265656e7472616e637947756172643a207265656e7472616e742063616c6c006044820152606401620005fe565b6002600055565b6001546001600160a01b03163314620009bc5760405162461bcd60e51b815260206004820181905260248201527f4f776e61626c653a2063616c6c6572206973206e6f7420746865206f776e65726044820152606401620005fe565b600180546001600160a01b038381166001600160a01b0319831681179093556040519116919082907f8be0079c531659141344cd1fd0a4f28419497f9722a3daafe3b4186f6b6457e090600090a35050565b610cc6806200180b83390190565b80356001600160a01b03811681146200127457600080fd5b919050565b6000602082840312156200128c57600080fd5b62001297826200125c565b9392505050565b6000815180845260005b81811015620012c657602081850181015186830182015201620012a8565b506000602082860101526020601f19601f83011685010191505092915050565b602081526000825160a060208401526200130460c08401826200129e565b90506020840151604084015260018060a01b03604085015116606084015260608401516080840152608084015160a08401528091505092915050565b600080604083850312156200135457600080fd5b6200135f836200125c565b946020939093013593505050565b60a0815260006200138260a08301886200129e565b6020830196909652506001600160a01b039390931660408401526060830191909152608090910152919050565b60008060408385031215620013c357600080fd5b620013ce836200125c565b9150620013de602084016200125c565b90509250929050565b6020815260006200129760208301846200129e565b6000806000606084860312156200141257600080fd5b6200141d846200125c565b92506200142d602085016200125c565b9150604084013590509250925092565b634e487b7160e01b600052604160045260246000fd5b6000806000606084860312156200146957600080fd5b833567ffffffffffffffff808211156200148257600080fd5b818601915086601f8301126200149757600080fd5b813581811115620014ac57620014ac6200143d565b604051601f8201601f19908116603f01168101908382118183101715620014d757620014d76200143d565b81604052828152896020848701011115620014f157600080fd5b82602086016020830137600060208483010152809750505050505060208401359150604084013590509250925092565b6000602082840312156200153457600080fd5b5035919050565b6020808252825182820181905260009190848201906040850190845b818110156200157e5783516001600160a01b03168352928401929184019160010162001557565b50909695505050505050565b600181811c908216806200159f57607f821691505b602082108103620015c057634e487b7160e01b600052602260045260246000fd5b50919050565b6020808252601d908201527f416d6f756e74206d7573742062652067726561746572207468616e2030000000604082015260600190565b634e487b7160e01b600052601160045260246000fd5b80820180821115620009e557620009e5620015fd565b8082028115828204841417620009e557620009e5620015fd565b6000826200166157634e487b7160e01b600052601260045260246000fd5b500490565b81810381811115620009e557620009e5620015fd565b6080815260006200169160808301876200129e565b8281036020840152620016a581876200129e565b604084019590955250506001600160a01b039190911660609091015292915050565b601f82111562000c4e57600081815260208120601f850160051c81016020861015620016f05750805b601f850160051c820191505b818110156200171157828155600101620016fc565b505050505050565b815167ffffffffffffffff8111156200173657620017366200143d565b6200174e816200174784546200158a565b84620016c7565b602080601f8311600181146200178657600084156200176d5750858301515b600019600386901b1c1916600185901b17855562001711565b600085815260208120601f198616915b82811015620017b75788860151825594840194600190910190840162001796565b5085821015620017d65787850151600019600388901b60f8161c191681555b5050505050600190811b01905550565b604081526000620017fb60408301856200129e565b9050826020830152939250505056fe60806040523480156200001157600080fd5b5060405162000cc638038062000cc6833981016040819052620000349162000217565b838360036200004483826200033a565b5060046200005382826200033a565b5050600580546001600160a01b0319166001600160a01b038416179055506200007d818362000087565b505050506200042e565b6001600160a01b038216620000e25760405162461bcd60e51b815260206004820152601f60248201527f45524332303a206d696e7420746f20746865207a65726f206164647265737300604482015260640160405180910390fd5b8060026000828254620000f6919062000406565b90915550506001600160a01b038216600081815260208181526040808320805486019055518481527fddf252ad1be2c89b69c2b068fc378daa952ba7f163c4a11628f55a4df523b3ef910160405180910390a35050565b505050565b634e487b7160e01b600052604160045260246000fd5b600082601f8301126200017a57600080fd5b81516001600160401b038082111562000197576200019762000152565b604051601f8301601f19908116603f01168101908282118183101715620001c257620001c262000152565b81604052838152602092508683858801011115620001df57600080fd5b600091505b83821015620002035785820183015181830184015290820190620001e4565b600093810190920192909252949350505050565b600080600080608085870312156200022e57600080fd5b84516001600160401b03808211156200024657600080fd5b620002548883890162000168565b955060208701519150808211156200026b57600080fd5b506200027a8782880162000168565b60408701516060880151919550935090506001600160a01b0381168114620002a157600080fd5b939692955090935050565b600181811c90821680620002c157607f821691505b602082108103620002e257634e487b7160e01b600052602260045260246000fd5b50919050565b601f8211156200014d57600081815260208120601f850160051c81016020861015620003115750805b601f850160051c820191505b8181101562000332578281556001016200031d565b505050505050565b81516001600160401b0381111562000356576200035662000152565b6200036e81620003678454620002ac565b84620002e8565b602080601f831160018114620003a657600084156200038d5750858301515b600019600386901b1c1916600185901b17855562000332565b600085815260208120601f198616915b82811015620003d757888601518255948401946001909101908401620003b6565b5085821015620003f65787850151600019600388901b60f8161c191681555b5050505050600190811b01905550565b808201808211156200042857634e487b7160e01b600052601160045260246000fd5b92915050565b610888806200043e6000396000f3fe608060405234801561001057600080fd5b50600436106100b45760003560e01c806370a082311161007157806370a082311461014157806395d89b411461016a578063a457c2d714610172578063a9059cbb14610185578063dd62ed3e14610198578063e274fd24146101ab57600080fd5b806306fdde03146100b9578063095ea7b3146100d757806318160ddd146100fa57806323b872dd1461010c578063313ce5671461011f578063395093511461012e575b600080fd5b6100c16101d6565b6040516100ce91906106d2565b60405180910390f35b6100ea6100e536600461073c565b610268565b60405190151581526020016100ce565b6002545b6040519081526020016100ce565b6100ea61011a366004610766565b610282565b604051601281526020016100ce565b6100ea61013c36600461073c565b6102a6565b6100fe61014f3660046107a2565b6001600160a01b031660009081526020819052604090205490565b6100c16102c8565b6100ea61018036600461073c565b6102d7565b6100ea61019336600461073c565b610357565b6100fe6101a63660046107c4565b610365565b6005546101be906001600160a01b031681565b6040516001600160a01b0390911681526020016100ce565b6060600380546101e5906107f7565b80601f0160208091040260200160405190810160405280929190818152602001828054610211906107f7565b801561025e5780601f106102335761010080835404028352916020019161025e565b820191906000526020600020905b81548152906001019060200180831161024157829003601f168201915b5050505050905090565b600033610276818585610390565b60019150505b92915050565b6000336102908582856104b4565b61029b85858561052e565b506001949350505050565b6000336102768185856102b98383610365565b6102c39190610831565b610390565b6060600480546101e5906107f7565b600033816102e58286610365565b90508381101561034a5760405162461bcd60e51b815260206004820152602560248201527f45524332303a2064656372656173656420616c6c6f77616e63652062656c6f77604482015264207a65726f60d81b60648201526084015b60405180910390fd5b61029b8286868403610390565b60003361027681858561052e565b6001600160a01b03918216600090815260016020908152604080832093909416825291909152205490565b6001600160a01b0383166103f25760405162461bcd60e51b8152602060048201526024808201527f45524332303a20617070726f76652066726f6d20746865207a65726f206164646044820152637265737360e01b6064820152608401610341565b6001600160a01b0382166104535760405162461bcd60e51b815260206004820152602260248201527f45524332303a20617070726f766520746f20746865207a65726f206164647265604482015261737360f01b6064820152608401610341565b6001600160a01b0383811660008181526001602090815260408083209487168084529482529182902085905590518481527f8c5be1e5ebec7d5bd14f71427d1e84f3dd0314c0f7b2291e5b200ac8c7c3b925910160405180910390a3505050565b60006104c08484610365565b90506000198114610528578181101561051b5760405162461bcd60e51b815260206004820152601d60248201527f45524332303a20696e73756666696369656e7420616c6c6f77616e63650000006044820152606401610341565b6105288484848403610390565b50505050565b6001600160a01b0383166105925760405162461bcd60e51b815260206004820152602560248201527f45524332303a207472616e736665722066726f6d20746865207a65726f206164604482015264647265737360d81b6064820152608401610341565b6001600160a01b0382166105f45760405162461bcd60e51b815260206004820152602360248201527f45524332303a207472616e7366657220746f20746865207a65726f206164647260448201526265737360e81b6064820152608401610341565b6001600160a01b0383166000908152602081905260409020548181101561066c5760405162461bcd60e51b815260206004820152602660248201527f45524332303a207472616e7366657220616d6f756e7420657863656564732062604482015265616c616e636560d01b6064820152608401610341565b6001600160a01b03848116600081815260208181526040808320878703905593871680835291849020805487019055925185815290927fddf252ad1be2c89b69c2b068fc378daa952ba7f163c4a11628f55a4df523b3ef910160405180910390a3610528565b600060208083528351808285015260005b818110156106ff578581018301518582016040015282016106e3565b506000604082860101526040601f19601f8301168501019250505092915050565b80356001600160a01b038116811461073757600080fd5b919050565b6000806040838503121561074f57600080fd5b61075883610720565b946020939093013593505050565b60008060006060848603121561077b57600080fd5b61078484610720565b925061079260208501610720565b9150604084013590509250925092565b6000602082840312156107b457600080fd5b6107bd82610720565b9392505050565b600080604083850312156107d757600080fd5b6107e083610720565b91506107ee60208401610720565b90509250929050565b600181811c9082168061080b57607f821691505b60208210810361082b57634e487b7160e01b600052602260045260246000fd5b50919050565b8082018082111561027c57634e487b7160e01b600052601160045260246000fdfea26469706673582212208f1ba74270b9dff1e7dba0ab99eb85dad4fbf37b55e1709bcc18f1142899f59664736f6c63430008130033a26469706673582212203a3ddccc2ab2214d88addff9d2fbbe40e470b968d0b9c1ce75f58b82c9299f4864736f6c63430008130033",
  "linkReferences": {},
  "deployedLinkReferences": {}
}