{"contracts/EventContract.sol":{"EventContract":{"abi":[{"inputs":[{"internalType":"string","name":"_eventName","type":"string"},{"internalType":"uint256","name":"_eventDate","type":"uint256"},{"internalType":"address","name":"_owner","type":"address"}],"stateMutability":"nonpayable","type":"constructor"},{"inputs":[{"internalType":"address","name":"owner","type":"address"}],"name":"OwnableInvalidOwner","type":"error"},{"inputs":[{"internalType":"address","name":"account","type":"address"}],"name":"OwnableUnauthorizedAccount","type":"error"},{"inputs":[],"name":"ReentrancyGuardReentrantCall","type":"error"},{"anonymous":false,"inputs":[{"indexed":true,"internalType":"address","name":"previousOwner","type":"address"},{"indexed":true,"internalType":"address","name":"newOwner","type":"address"}],"name":"OwnershipTransferred","type":"event"},{"anonymous":false,"inputs":[{"indexed":true,"internalType":"address","name":"tokenAddress","type":"address"},{"indexed":false,"internalType":"string","name":"name","type":"string"},{"indexed":false,"internalType":"uint256","name":"priceInCents","type":"uint256"}],"name":"TokenCreated","type":"event"},{"anonymous":false,"inputs":[{"indexed":true,"internalType":"address","name":"buyer","type":"address"},{"indexed":true,"internalType":"address","name":"tokenAddress","type":"address"},{"indexed":false,"internalType":"uint256","name":"amount","type":"uint256"},{"indexed":false,"internalType":"uint256","name":"totalCost","type":"uint256"}],"name":"TokensPurchased","type":"event"},{"anonymous":false,"inputs":[{"indexed":true,"internalType":"address","name":"user","type":"address"},{"indexed":true,"internalType":"address","name":"tokenAddress","type":"address"},{"indexed":false,"internalType":"uint256","name":"amount","type":"uint256"},{"indexed":false,"internalType":"uint256","name":"refundAmount","type":"uint256"}],"name":"TokensRedeemed","type":"event"},{"anonymous":false,"inputs":[{"indexed":true,"internalType":"address","name":"from","type":"address"},{"indexed":true,"internalType":"address","name":"to","type":"address"},{"indexed":true,"internalType":"address","name":"tokenAddress","type":"address"},{"indexed":false,"internalType":"uint256","name":"amount","type":"uint256"}],"name":"TokensTransferred","type":"event"},{"anonymous":false,"inputs":[{"indexed":true,"internalType":"address","name":"vendor","type":"address"}],"name":"VendorAuthorized","type":"event"},{"inputs":[{"internalType":"address","name":"_vendor","type":"address"}],"name":"authorizeVendor","outputs":[],"stateMutability":"nonpayable","type":"function"},{"inputs":[{"internalType":"address","name":"","type":"address"}],"name":"authorizedVendors","outputs":[{"internalType":"bool","name":"","type":"bool"}],"stateMutability":"view","type":"function"},{"inputs":[{"internalType":"string","name":"_name","type":"string"},{"internalType":"uint256","name":"_priceInCents","type":"uint256"},{"internalType":"uint256","name":"_initialSupply","type":"uint256"}],"name":"createToken","outputs":[],"stateMutability":"nonpayable","type":"function"},{"inputs":[],"name":"emergencyStop","outputs":[],"stateMutability":"nonpayable","type":"function"},{"inputs":[],"name":"eventDate","outputs":[{"internalType":"uint256","name":"","type":"uint256"}],"stateMutability":"view","type":"function"},{"inputs":[],"name":"eventName","outputs":[{"internalType":"string","name":"","type":"string"}],"stateMutability":"view","type":"function"},{"inputs":[{"internalType":"address","name":"","type":"address"}],"name":"eventTokens","outputs":[{"internalType":"string","name":"name","type":"string"},{"internalType":"uint256","name":"priceInCents","type":"uint256"},{"internalType":"address","name":"tokenAddress","type":"address"},{"internalType":"uint256","name":"totalSupply","type":"uint256"},{"internalType":"uint256","name":"totalSold","type":"uint256"}],"stateMutability":"view","type":"function"},{"inputs":[],"name":"getTokenAddresses","outputs":[{"internalType":"address[]","name":"","type":"address[]"}],"stateMutability":"view","type":"function"},{"inputs":[{"internalType":"address","name":"_tokenAddress","type":"address"}],"name":"getTokenInfo","outputs":[{"components":[{"internalType":"string","name":"name","type":"string"},{"internalType":"uint256","name":"priceInCents","type":"uint256"},{"internalType":"address","name":"tokenAddress","type":"address"},{"internalType":"uint256","name":"totalSupply","type":"uint256"},{"internalType":"uint256","name":"totalSold","type":"uint256"}],"internalType":"struct EventContract.EventToken","name":"","type":"tuple"}],"stateMutability":"view","type":"function"},{"inputs":[{"internalType":"address","name":"_user","type":"address"},{"internalType":"address","name":"_tokenAddress","type":"address"}],"name":"getUserTokenBalance","outputs":[{"internalType":"uint256","name":"","type":"uint256"}],"stateMutability":"view","type":"function"},{"inputs":[],"name":"isActive","outputs":[{"internalType":"bool","name":"","type":"bool"}],"stateMutability":"view","type":"function"},{"inputs":[],"name":"owner","outputs":[{"internalType":"address","name":"","type":"address"}],"stateMutability":"view","type":"function"},{"inputs":[{"internalType":"address","name":"_tokenAddress","type":"address"},{"internalType":"uint256","name":"_amount","type":"uint256"}],"name":"purchaseTokens","outputs":[],"stateMutability":"payable","type":"function"},{"inputs":[{"internalType":"address","name":"_tokenAddress","type":"address"},{"internalType":"uint256","name":"_amount","type":"uint256"}],"name":"redeemTokens","outputs":[],"stateMutability":"nonpayable","type":"function"},{"inputs":[],"name":"renounceOwnership","outputs":[],"stateMutability":"nonpayable","type":"function"},{"inputs":[],"name":"restartEvent","outputs":[],"stateMutability":"nonpayable","type":"function"},{"inputs":[{"internalType":"uint256","name":"","type":"uint256"}],"name":"tokenAddresses","outputs":[{"internalType":"address","name":"","type":"address"}],"stateMutability":"view","type":"function"},{"inputs":[{"internalType":"address","name":"newOwner","type":"address"}],"name":"transferOwnership","outputs":[],"stateMutability":"nonpayable","type":"function"},{"inputs":[{"internalType":"address","name":"_to","type":"address"},{"internalType":"address","name":"_tokenAddress","type":"address"},{"internalType":"uint256","name":"_amount","type":"uint256"}],"name":"transferTokens","outputs":[],"stateMutability":"nonpayable","type":"function"},{"inputs":[{"internalType":"address","name":"","type":"address"},{"internalType":"address","name":"","type":"address"}],"name":"userTokenBalances","outputs":[{"internalType":"uint256","name":"","type":"uint256"}],"stateMutability":"view","type":"function"},{"inputs":[],"name":"withdrawFunds","outputs":[],"stateMutability":"nonpayable","type":"function"}],"evm":{"bytecode":{"linkReferences":{},"object":"60806040523480156200001157600080fd5b506040516200276538038062002765833981016040819052620000349162000121565b6001600055806001600160a01b0381166200006957604051631e4fbdf760e01b81526000600482015260240160405180910390fd5b62000074816200009c565b506002620000838482620002a1565b5050600355506004805460ff191660011790556200036d565b600180546001600160a01b038381166001600160a01b0319831681179093556040519116919082907f8be0079c531659141344cd1fd0a4f28419497f9722a3daafe3b4186f6b6457e090600090a35050565b634e487b7160e01b600052604160045260246000fd5b80516001600160a01b03811681146200011c57600080fd5b919050565b6000806000606084860312156200013757600080fd5b83516001600160401b03808211156200014f57600080fd5b818601915086601f8301126200016457600080fd5b815181811115620001795762000179620000ee565b604051601f8201601f19908116603f01168101908382118183101715620001a457620001a4620000ee565b81604052828152602093508984848701011115620001c157600080fd5b600091505b82821015620001e55784820184015181830185015290830190620001c6565b60008484830101528097505050508086015193505050620002096040850162000104565b90509250925092565b600181811c908216806200022757607f821691505b6020821081036200024857634e487b7160e01b600052602260045260246000fd5b50919050565b601f8211156200029c57600081815260208120601f850160051c81016020861015620002775750805b601f850160051c820191505b81811015620002985782815560010162000283565b5050505b505050565b81516001600160401b03811115620002bd57620002bd620000ee565b620002d581620002ce845462000212565b846200024e565b602080601f8311600181146200030d5760008415620002f45750858301515b600019600386901b1c1916600185901b17855562000298565b600085815260208120601f198616915b828110156200033e578886015182559484019460019091019084016200031d565b50858210156200035d5787850151600019600388901b60f8161c191681555b5050505050600190811b01905550565b6123e8806200037d6000396000f3fe608060405260043610620001435760003560e01c80638043c9c011620000b9578063caca97e51162000078578063caca97e51462000390578063dad7f11014620003b5578063e5df8b8414620003da578063ee8c24b814620003ff578063f2fde38b1462000426578063f7793862146200044b57600080fd5b80638043c9c014620002d35780638da5cb5b14620002fa578063951e0809146200032e578063a64b6e5f1462000346578063bec2a7c5146200036b57600080fd5b806345f2d105116200010657806345f2d105146200021b5780634bfbe5df146200026657806363a599a4146200027e578063715018a6146200029657806373f8fd4b14620002ae57600080fd5b80631f69565f146200014857806322ea2231146200018557806322f3e2d4146200019e57806324600fc314620001cb578063283f1d7e14620001e3575b600080fd5b3480156200015557600080fd5b506200016d62000167366004620011e1565b6200047f565b6040516200017c91906200124e565b60405180910390f35b6200019c62000196366004620012a8565b620005af565b005b348015620001ab57600080fd5b50600454620001ba9060ff1681565b60405190151581526020016200017c565b348015620001d857600080fd5b506200019c62000880565b348015620001f057600080fd5b506200020862000202366004620011e1565b620008c7565b6040516200017c959493929190620012d5565b3480156200022857600080fd5b50620002576200023a36600462001317565b600660209081526000928352604080842090915290825290205481565b6040519081526020016200017c565b3480156200027357600080fd5b506200025760035481565b3480156200028b57600080fd5b506200019c62000990565b348015620002a357600080fd5b506200019c620009a6565b348015620002bb57600080fd5b5062000257620002cd36600462001317565b620009be565b348015620002e057600080fd5b50620002eb620009eb565b6040516200017c91906200134f565b3480156200030757600080fd5b506001546001600160a01b03165b6040516001600160a01b0390911681526020016200017c565b3480156200033b57600080fd5b506200019c62000a81565b3480156200035357600080fd5b506200019c6200036536600462001364565b62000a9a565b3480156200037857600080fd5b506200019c6200038a366004620013bb565b62000c53565b3480156200039d57600080fd5b506200019c620003af366004620011e1565b62000dc3565b348015620003c257600080fd5b506200019c620003d4366004620012a8565b62000e19565b348015620003e757600080fd5b5062000315620003f936600462001489565b6200103a565b3480156200040c57600080fd5b506200041762001065565b6040516200017c9190620014a3565b3480156200043357600080fd5b506200019c62000445366004620011e1565b620010c9565b3480156200045857600080fd5b50620001ba6200046a366004620011e1565b60076020526000908152604090205460ff1681565b620004bb6040518060a00160405280606081526020016000815260200160006001600160a01b0316815260200160008152602001600081525090565b6001600160a01b03821660009081526005602052604090819020815160a08101909252805482908290620004ef90620014f2565b80601f01602080910402602001604051908101604052809291908181526020018280546200051d90620014f2565b80156200056e5780601f1062000542576101008083540402835291602001916200056e565b820191906000526020600020905b8154815290600101906020018083116200055057829003601f168201915b50505091835250506001820154602082015260028201546001600160a01b031660408201526003820154606082015260049091015460809091015292915050565b620005b96200110a565b60045460ff16620006075760405162461bcd60e51b81526020600482015260136024820152724576656e74206973206e6f742061637469766560681b60448201526064015b60405180910390fd5b6001600160a01b03828116600090815260056020526040902060020154166200066a5760405162461bcd60e51b8152602060048201526014602482015273151bdad95b88191bd95cc81b9bdd08195e1a5cdd60621b6044820152606401620005fe565b600081116200068d5760405162461bcd60e51b8152600401620005fe906200152e565b6001600160a01b038216600090815260056020526040902060038101546004820154620006bc9084906200157b565b11156200070c5760405162461bcd60e51b815260206004820152601b60248201527f4e6f7420656e6f75676820746f6b656e7320617661696c61626c6500000000006044820152606401620005fe565b6000606483836001015462000722919062001591565b6200073690670de0b6b3a764000062001591565b620007429190620015ab565b9050803410156200078d5760405162461bcd60e51b8152602060048201526014602482015273125b9cdd59999a58da595b9d081c185e5b595b9d60621b6044820152606401620005fe565b3360009081526006602090815260408083206001600160a01b038816845290915281208054859290620007c29084906200157b565b9250508190555082826004016000828254620007df91906200157b565b9091555050348110156200082857336108fc620007fd8334620015ce565b6040518115909202916000818181858888f1935050505015801562000826573d6000803e3d6000fd5b505b60408051848152602081018390526001600160a01b0386169133917f6faf93231a456e552dbc9961f58d9713ee4f2e69d15f1975b050ef0911053a7b91015b60405180910390a350506200087c6001600055565b5050565b6200088a62001135565b6001546040516001600160a01b03909116904780156108fc02916000818181858888f19350505050158015620008c4573d6000803e3d6000fd5b50565b600560205260009081526040902080548190620008e490620014f2565b80601f01602080910402602001604051908101604052809291908181526020018280546200091290620014f2565b8015620009635780601f10620009375761010080835404028352916020019162000963565b820191906000526020600020905b8154815290600101906020018083116200094557829003601f168201915b50505050600183015460028401546003850154600490950154939491936001600160a01b03909116925085565b6200099a62001135565b6004805460ff19169055565b620009b062001135565b620009bc600062001164565b565b6001600160a01b038083166000908152600660209081526040808320938516835292905220545b92915050565b60028054620009fa90620014f2565b80601f016020809104026020016040519081016040528092919081815260200182805462000a2890620014f2565b801562000a795780601f1062000a4d5761010080835404028352916020019162000a79565b820191906000526020600020905b81548152906001019060200180831162000a5b57829003601f168201915b505050505081565b62000a8b62001135565b6004805460ff19166001179055565b62000aa46200110a565b60045460ff1662000aee5760405162461bcd60e51b81526020600482015260136024820152724576656e74206973206e6f742061637469766560681b6044820152606401620005fe565b3360009081526006602090815260408083206001600160a01b038616845290915290205481111562000b635760405162461bcd60e51b815260206004820152601a60248201527f496e73756666696369656e7420746f6b656e2062616c616e63650000000000006044820152606401620005fe565b6000811162000b865760405162461bcd60e51b8152600401620005fe906200152e565b3360009081526006602090815260408083206001600160a01b03861684529091528120805483929062000bbb908490620015ce565b90915550506001600160a01b0380841660009081526006602090815260408083209386168352929052908120805483929062000bf99084906200157b565b90915550506040518181526001600160a01b03808416919085169033907f70c5f97fd0068e96984b8116fe83eefbff3b91244565bf311a3cba619b4ecbc79060200160405180910390a462000c4e6001600055565b505050565b62000c5d62001135565b60008384833060405162000c7190620011b6565b62000c809493929190620015e4565b604051809103906000f08015801562000c9d573d6000803e3d6000fd5b506040805160a08101825286815260208082018790526001600160a01b0384168284018190526060830187905260006080840181905290815260059091529190912081519293508392819062000cf4908262001681565b5060208201516001808301919091556040808401516002840180546001600160a01b039283166001600160a01b031991821617909155606086015160038601556080909501516004909401939093556008805492830181556000527ff3f7a9fe364faab93b216da50a3214154f22a0a2b415b23a84c8169e8b636ee3909101805492851692909316821790925590517f245219c91d644a43a38d1479b1e5a7cc4b5c371d7049bff40dfd12c136c4e72a9062000db490889088906200174e565b60405180910390a25050505050565b62000dcd62001135565b6001600160a01b038116600081815260076020526040808220805460ff19166001179055517f3015ae01b4334d1ac8c33010ea96f07356176ca023f850b6af1656be900db2509190a250565b62000e236200110a565b3360009081526006602090815260408083206001600160a01b038616845290915290205481111562000e985760405162461bcd60e51b815260206004820152601a60248201527f496e73756666696369656e7420746f6b656e2062616c616e63650000000000006044820152606401620005fe565b6000811162000ebb5760405162461bcd60e51b8152600401620005fe906200152e565b6001600160a01b0382166000908152600560205260408120600181015490919060649062000eeb90859062001591565b62000eff90670de0b6b3a764000062001591565b62000f0b9190620015ab565b90508047101562000f705760405162461bcd60e51b815260206004820152602860248201527f496e73756666696369656e7420636f6e74726163742062616c616e636520666f6044820152671c881c99599d5b9960c21b6064820152608401620005fe565b3360009081526006602090815260408083206001600160a01b03881684529091528120805485929062000fa5908490620015ce565b925050819055508282600401600082825462000fc29190620015ce565b9091555050604051339082156108fc029083906000818181858888f1935050505015801562000ff5573d6000803e3d6000fd5b5060408051848152602081018390526001600160a01b0386169133917f0bb7d7161f80ca4cd98ff0298ff3ba71bb1a2f4e100340b6fc696d6caa432181910162000867565b600881815481106200104b57600080fd5b6000918252602090912001546001600160a01b0316905081565b60606008805480602002602001604051908101604052809291908181526020018280548015620010bf57602002820191906000526020600020905b81546001600160a01b03168152600190910190602001808311620010a0575b5050505050905090565b620010d362001135565b6001600160a01b038116620010ff57604051631e4fbdf760e01b815260006004820152602401620005fe565b620008c48162001164565b6002600054036200112e57604051633ee5aeb560e01b815260040160405180910390fd5b6002600055565b6001546001600160a01b03163314620009bc5760405163118cdaa760e01b8152336004820152602401620005fe565b600180546001600160a01b038381166001600160a01b0319831681179093556040519116919082907f8be0079c531659141344cd1fd0a4f28419497f9722a3daafe3b4186f6b6457e090600090a35050565b610c40806200177383390190565b80356001600160a01b0381168114620011dc57600080fd5b919050565b600060208284031215620011f457600080fd5b620011ff82620011c4565b9392505050565b6000815180845260005b818110156200122e5760208185018101518683018201520162001210565b506000602082860101526020601f19601f83011685010191505092915050565b602081526000825160a060208401526200126c60c084018262001206565b90506020840151604084015260018060a01b03604085015116606084015260608401516080840152608084015160a08401528091505092915050565b60008060408385031215620012bc57600080fd5b620012c783620011c4565b946020939093013593505050565b60a081526000620012ea60a083018862001206565b6020830196909652506001600160a01b039390931660408401526060830191909152608090910152919050565b600080604083850312156200132b57600080fd5b6200133683620011c4565b91506200134660208401620011c4565b90509250929050565b602081526000620011ff602083018462001206565b6000806000606084860312156200137a57600080fd5b6200138584620011c4565b92506200139560208501620011c4565b9150604084013590509250925092565b634e487b7160e01b600052604160045260246000fd5b600080600060608486031215620013d157600080fd5b833567ffffffffffffffff80821115620013ea57600080fd5b818601915086601f830112620013ff57600080fd5b813581811115620014145762001414620013a5565b604051601f8201601f19908116603f011681019083821181831017156200143f576200143f620013a5565b816040528281528960208487010111156200145957600080fd5b82602086016020830137600060208483010152809750505050505060208401359150604084013590509250925092565b6000602082840312156200149c57600080fd5b5035919050565b6020808252825182820181905260009190848201906040850190845b81811015620014e65783516001600160a01b031683529284019291840191600101620014bf565b50909695505050505050565b600181811c908216806200150757607f821691505b6020821081036200152857634e487b7160e01b600052602260045260246000fd5b50919050565b6020808252601d908201527f416d6f756e74206d7573742062652067726561746572207468616e2030000000604082015260600190565b634e487b7160e01b600052601160045260246000fd5b80820180821115620009e557620009e562001565565b8082028115828204841417620009e557620009e562001565565b600082620015c957634e487b7160e01b600052601260045260246000fd5b500490565b81810381811115620009e557620009e562001565565b608081526000620015f9608083018762001206565b82810360208401526200160d818762001206565b604084019590955250506001600160a01b039190911660609091015292915050565b601f82111562000c4e57600081815260208120601f850160051c81016020861015620016585750805b601f850160051c820191505b81811015620016795782815560010162001664565b505050505050565b815167ffffffffffffffff8111156200169e576200169e620013a5565b620016b681620016af8454620014f2565b846200162f565b602080601f831160018114620016ee5760008415620016d55750858301515b600019600386901b1c1916600185901b17855562001679565b600085815260208120601f198616915b828110156200171f57888601518255948401946001909101908401620016fe565b50858210156200173e5787850151600019600388901b60f8161c191681555b5050505050600190811b01905550565b60408152600062001763604083018562001206565b9050826020830152939250505056fe60806040523480156200001157600080fd5b5060405162000c4038038062000c408339810160408190526200003491620002c1565b83836003620000448382620003e5565b506004620000538282620003e5565b5050600580546001600160a01b0319166001600160a01b038416179055506200007d818362000087565b50505050620004d9565b6001600160a01b038216620000b75760405163ec442f0560e01b8152600060048201526024015b60405180910390fd5b620000c560008383620000c9565b5050565b6001600160a01b038316620000f8578060026000828254620000ec9190620004b1565b909155506200016c9050565b6001600160a01b038316600090815260208190526040902054818110156200014d5760405163391434e360e21b81526001600160a01b03851660048201526024810182905260448101839052606401620000ae565b6001600160a01b03841660009081526020819052604090209082900390555b6001600160a01b0382166200018a57600280548290039055620001a9565b6001600160a01b03821660009081526020819052604090208054820190555b816001600160a01b0316836001600160a01b03167fddf252ad1be2c89b69c2b068fc378daa952ba7f163c4a11628f55a4df523b3ef83604051620001ef91815260200190565b60405180910390a3505050565b634e487b7160e01b600052604160045260246000fd5b600082601f8301126200022457600080fd5b81516001600160401b0380821115620002415762000241620001fc565b604051601f8301601f19908116603f011681019082821181831017156200026c576200026c620001fc565b816040528381526020925086838588010111156200028957600080fd5b600091505b83821015620002ad57858201830151818301840152908201906200028e565b600093810190920192909252949350505050565b60008060008060808587031215620002d857600080fd5b84516001600160401b0380821115620002f057600080fd5b620002fe8883890162000212565b955060208701519150808211156200031557600080fd5b50620003248782880162000212565b60408701516060880151919550935090506001600160a01b03811681146200034b57600080fd5b939692955090935050565b600181811c908216806200036b57607f821691505b6020821081036200038c57634e487b7160e01b600052602260045260246000fd5b50919050565b601f821115620003e057600081815260208120601f850160051c81016020861015620003bb5750805b601f850160051c820191505b81811015620003dc57828155600101620003c7565b5050505b505050565b81516001600160401b03811115620004015762000401620001fc565b620004198162000412845462000356565b8462000392565b602080601f831160018114620004515760008415620004385750858301515b600019600386901b1c1916600185901b178555620003dc565b600085815260208120601f198616915b82811015620004825788860151825594840194600190910190840162000461565b5085821015620004a15787850151600019600388901b60f8161c191681555b5050505050600190811b01905550565b80820180821115620004d357634e487b7160e01b600052601160045260246000fd5b92915050565b61075780620004e96000396000f3fe608060405234801561001057600080fd5b506004361061009e5760003560e01c806370a082311161006657806370a082311461011857806395d89b4114610141578063a9059cbb14610149578063dd62ed3e1461015c578063e274fd241461019557600080fd5b806306fdde03146100a3578063095ea7b3146100c157806318160ddd146100e457806323b872dd146100f6578063313ce56714610109575b600080fd5b6100ab6101c0565b6040516100b891906105a1565b60405180910390f35b6100d46100cf36600461060b565b610252565b60405190151581526020016100b8565b6002545b6040519081526020016100b8565b6100d4610104366004610635565b61026c565b604051601281526020016100b8565b6100e8610126366004610671565b6001600160a01b031660009081526020819052604090205490565b6100ab610290565b6100d461015736600461060b565b61029f565b6100e861016a366004610693565b6001600160a01b03918216600090815260016020908152604080832093909416825291909152205490565b6005546101a8906001600160a01b031681565b6040516001600160a01b0390911681526020016100b8565b6060600380546101cf906106c6565b80601f01602080910402602001604051908101604052809291908181526020018280546101fb906106c6565b80156102485780601f1061021d57610100808354040283529160200191610248565b820191906000526020600020905b81548152906001019060200180831161022b57829003601f168201915b5050505050905090565b6000336102608185856102ad565b60019150505b92915050565b60003361027a8582856102bf565b610285858585610343565b506001949350505050565b6060600480546101cf906106c6565b600033610260818585610343565b6102ba83838360016103a2565b505050565b6001600160a01b0383811660009081526001602090815260408083209386168352929052205460001981101561033d578181101561032e57604051637dc7a0d960e11b81526001600160a01b038416600482015260248101829052604481018390526064015b60405180910390fd5b61033d848484840360006103a2565b50505050565b6001600160a01b03831661036d57604051634b637e8f60e11b815260006004820152602401610325565b6001600160a01b0382166103975760405163ec442f0560e01b815260006004820152602401610325565b6102ba838383610477565b6001600160a01b0384166103cc5760405163e602df0560e01b815260006004820152602401610325565b6001600160a01b0383166103f657604051634a1406b160e11b815260006004820152602401610325565b6001600160a01b038085166000908152600160209081526040808320938716835292905220829055801561033d57826001600160a01b0316846001600160a01b03167f8c5be1e5ebec7d5bd14f71427d1e84f3dd0314c0f7b2291e5b200ac8c7c3b9258460405161046991815260200190565b60405180910390a350505050565b6001600160a01b0383166104a25780600260008282546104979190610700565b909155506105149050565b6001600160a01b038316600090815260208190526040902054818110156104f55760405163391434e360e21b81526001600160a01b03851660048201526024810182905260448101839052606401610325565b6001600160a01b03841660009081526020819052604090209082900390555b6001600160a01b0382166105305760028054829003905561054f565b6001600160a01b03821660009081526020819052604090208054820190555b816001600160a01b0316836001600160a01b03167fddf252ad1be2c89b69c2b068fc378daa952ba7f163c4a11628f55a4df523b3ef8360405161059491815260200190565b60405180910390a3505050565b600060208083528351808285015260005b818110156105ce578581018301518582016040015282016105b2565b506000604082860101526040601f19601f8301168501019250505092915050565b80356001600160a01b038116811461060657600080fd5b919050565b6000806040838503121561061e57600080fd5b610627836105ef565b946020939093013593505050565b60008060006060848603121561064a57600080fd5b610653846105ef565b9250610661602085016105ef565b9150604084013590509250925092565b60006020828403121561068357600080fd5b61068c826105ef565b9392505050565b600080604083850312156106a657600080fd5b6106af836105ef565b91506106bd602084016105ef565b90509250929050565b600181811c908216806106da57607f821691505b6020821081036106fa57634e487b7160e01b600052602260045260246000fd5b50919050565b8082018082111561026657634e487b7160e01b600052601160045260246000fdfea264697066735822122021ddfc06d21d43dcde4d413ad95ed4e7034653a7370d79baf184b2665ddc30c064736f6c63430008140033a2646970667358221220ebd7a965985a863ef7066e06cad839c720865cb9f00b920f1c0c242fbbf8776d64736f6c63430008140033","opcodes":"PUSH1 0x80 PUSH1 0x40 MSTORE CALLVALUE DUP1 ISZERO PUSH3 0x11 JUMPI PUSH1 0x0 DUP1 REVERT JUMPDEST POP PUSH1 0x40 MLOAD PUSH3 0x2765 CODESIZE SUB DUP1 PUSH3 0x2765 DUP4 CODECOPY DUP2 ADD PUSH1 0x40 DUP2 SWAP1 MSTORE PUSH3 0x34 SWAP2 PUSH3 0x121 JUMP JUMPDEST PUSH1 0x1 PUSH1 0x0 SSTORE DUP1 PUSH1 0x1 PUSH1 0x1 PUSH1 0xA0 SHL SUB DUP2 AND PUSH3 0x69 JUMPI PUSH1 0x40 MLOAD PUSH4 0x1E4FBDF7 PUSH1 0xE0 SHL DUP2 MSTORE PUSH1 0x0 PUSH1 0x4 DUP3 ADD MSTORE PUSH1 0x24 ADD PUSH1 0x40 MLOAD DUP1 SWAP2 SUB SWAP1 REVERT JUMPDEST PUSH3 0x74 DUP2 PUSH3 0x9C JUMP JUMPDEST POP PUSH1 0x2 PUSH3 0x83 DUP5 DUP3 PUSH3 0x2A1 JUMP JUMPDEST POP POP PUSH1 0x3 SSTORE POP PUSH1 0x4 DUP1 SLOAD PUSH1 0xFF NOT AND PUSH1 0x1 OR SWAP1 SSTORE PUSH3 0x36D JUMP JUMPDEST PUSH1 0x1 DUP1 SLOAD PUSH1 0x1 PUSH1 0x1 PUSH1 0xA0 SHL SUB DUP4 DUP2 AND PUSH1 0x1 PUSH1 0x1 PUSH1 0xA0 SHL SUB NOT DUP4 AND DUP2 OR SWAP1 SWAP4 SSTORE PUSH1 0x40 MLOAD SWAP2 AND SWAP2 SWAP1 DUP3 SWAP1 PUSH32 0x8BE0079C531659141344CD1FD0A4F28419497F9722A3DAAFE3B4186F6B6457E0 SWAP1 PUSH1 0x0 SWAP1 LOG3 POP POP JUMP JUMPDEST PUSH4 0x4E487B71 PUSH1 0xE0 SHL PUSH1 0x0 MSTORE PUSH1 0x41 PUSH1 0x4 MSTORE PUSH1 0x24 PUSH1 0x0 REVERT JUMPDEST DUP1 MLOAD PUSH1 0x1 PUSH1 0x1 PUSH1 0xA0 SHL SUB DUP2 AND DUP2 EQ PUSH3 0x11C JUMPI PUSH1 0x0 DUP1 REVERT JUMPDEST SWAP2 SWAP1 POP JUMP JUMPDEST PUSH1 0x0 DUP1 PUSH1 0x0 PUSH1 0x60 DUP5 DUP7 SUB SLT ISZERO PUSH3 0x137 JUMPI PUSH1 0x0 DUP1 REVERT JUMPDEST DUP4 MLOAD PUSH1 0x1 PUSH1 0x1 PUSH1 0x40 SHL SUB DUP1 DUP3 GT ISZERO PUSH3 0x14F JUMPI PUSH1 0x0 DUP1 REVERT JUMPDEST DUP2 DUP7 ADD SWAP2 POP DUP7 PUSH1 0x1F DUP4 ADD SLT PUSH3 0x164 JUMPI PUSH1 0x0 DUP1 REVERT JUMPDEST DUP2 MLOAD DUP2 DUP2 GT ISZERO PUSH3 0x179 JUMPI PUSH3 0x179 PUSH3 0xEE JUMP JUMPDEST PUSH1 0x40 MLOAD PUSH1 0x1F DUP3 ADD PUSH1 0x1F NOT SWAP1 DUP2 AND PUSH1 0x3F ADD AND DUP2 ADD SWAP1 DUP4 DUP3 GT DUP2 DUP4 LT OR ISZERO PUSH3 0x1A4 JUMPI PUSH3 0x1A4 PUSH3 0xEE JUMP JUMPDEST DUP2 PUSH1 0x40 MSTORE DUP3 DUP2 MSTORE PUSH1 0x20 SWAP4 POP DUP10 DUP5 DUP5 DUP8 ADD ADD GT ISZERO PUSH3 0x1C1 JUMPI PUSH1 0x0 DUP1 REVERT JUMPDEST PUSH1 0x0 SWAP2 POP JUMPDEST DUP3 DUP3 LT ISZERO PUSH3 0x1E5 JUMPI DUP5 DUP3 ADD DUP5 ADD MLOAD DUP2 DUP4 ADD DUP6 ADD MSTORE SWAP1 DUP4 ADD SWAP1 PUSH3 0x1C6 JUMP JUMPDEST PUSH1 0x0 DUP5 DUP5 DUP4 ADD ADD MSTORE DUP1 SWAP8 POP POP POP POP DUP1 DUP7 ADD MLOAD SWAP4 POP POP POP PUSH3 0x209 PUSH1 0x40 DUP6 ADD PUSH3 0x104 JUMP JUMPDEST SWAP1 POP SWAP3 POP SWAP3 POP SWAP3 JUMP JUMPDEST PUSH1 0x1 DUP2 DUP2 SHR SWAP1 DUP3 AND DUP1 PUSH3 0x227 JUMPI PUSH1 0x7F DUP3 AND SWAP2 POP JUMPDEST PUSH1 0x20 DUP3 LT DUP2 SUB PUSH3 0x248 JUMPI PUSH4 0x4E487B71 PUSH1 0xE0 SHL PUSH1 0x0 MSTORE PUSH1 0x22 PUSH1 0x4 MSTORE PUSH1 0x24 PUSH1 0x0 REVERT JUMPDEST POP SWAP2 SWAP1 POP JUMP JUMPDEST PUSH1 0x1F DUP3 GT ISZERO PUSH3 0x29C JUMPI PUSH1 0x0 DUP2 DUP2 MSTORE PUSH1 0x20 DUP2 KECCAK256 PUSH1 0x1F DUP6 ADD PUSH1 0x5 SHR DUP2 ADD PUSH1 0x20 DUP7 LT ISZERO PUSH3 0x277 JUMPI POP DUP1 JUMPDEST PUSH1 0x1F DUP6 ADD PUSH1 0x5 SHR DUP3 ADD SWAP2 POP JUMPDEST DUP2 DUP2 LT ISZERO PUSH3 0x298 JUMPI DUP3 DUP2 SSTORE PUSH1 0x1 ADD PUSH3 0x283 JUMP JUMPDEST POP POP POP JUMPDEST POP POP POP JUMP JUMPDEST DUP2 MLOAD PUSH1 0x1 PUSH1 0x1 PUSH1 0x40 SHL SUB DUP2 GT ISZERO PUSH3 0x2BD JUMPI PUSH3 0x2BD PUSH3 0xEE JUMP JUMPDEST PUSH3 0x2D5 DUP2 PUSH3 0x2CE DUP5 SLOAD PUSH3 0x212 JUMP JUMPDEST DUP5 PUSH3 0x24E JUMP JUMPDEST PUSH1 0x20 DUP1 PUSH1 0x1F DUP4 GT PUSH1 0x1 DUP2 EQ PUSH3 0x30D JUMPI PUSH1 0x0 DUP5 ISZERO PUSH3 0x2F4 JUMPI POP DUP6 DUP4 ADD MLOAD JUMPDEST PUSH1 0x0 NOT PUSH1 0x3 DUP7 SWAP1 SHL SHR NOT AND PUSH1 0x1 DUP6 SWAP1 SHL OR DUP6 SSTORE PUSH3 0x298 JUMP JUMPDEST PUSH1 0x0 DUP6 DUP2 MSTORE PUSH1 0x20 DUP2 KECCAK256 PUSH1 0x1F NOT DUP7 AND SWAP2 JUMPDEST DUP3 DUP2 LT ISZERO PUSH3 0x33E JUMPI DUP9 DUP7 ADD MLOAD DUP3 SSTORE SWAP5 DUP5 ADD SWAP5 PUSH1 0x1 SWAP1 SWAP2 ADD SWAP1 DUP5 ADD PUSH3 0x31D JUMP JUMPDEST POP DUP6 DUP3 LT ISZERO PUSH3 0x35D JUMPI DUP8 DUP6 ADD MLOAD PUSH1 0x0 NOT PUSH1 0x3 DUP9 SWAP1 SHL PUSH1 0xF8 AND SHR NOT AND DUP2 SSTORE JUMPDEST POP POP POP POP POP PUSH1 0x1 SWAP1 DUP2 SHL ADD SWAP1 SSTORE POP JUMP JUMPDEST PUSH2 0x23E8 DUP1 PUSH3 0x37D PUSH1 0x0 CODECOPY PUSH1 0x0 RETURN INVALID PUSH1 0x80 PUSH1 0x40 MSTORE PUSH1 0x4 CALLDATASIZE LT PUSH3 0x143 JUMPI PUSH1 0x0 CALLDATALOAD PUSH1 0xE0 SHR DUP1 PUSH4 0x8043C9C0 GT PUSH3 0xB9 JUMPI DUP1 PUSH4 0xCACA97E5 GT PUSH3 0x78 JUMPI DUP1 PUSH4 0xCACA97E5 EQ PUSH3 0x390 JUMPI DUP1 PUSH4 0xDAD7F110 EQ PUSH3 0x3B5 JUMPI DUP1 PUSH4 0xE5DF8B84 EQ PUSH3 0x3DA JUMPI DUP1 PUSH4 0xEE8C24B8 EQ PUSH3 0x3FF JUMPI DUP1 PUSH4 0xF2FDE38B EQ PUSH3 0x426 JUMPI DUP1 PUSH4 0xF7793862 EQ PUSH3 0x44B JUMPI PUSH1 0x0 DUP1 REVERT JUMPDEST DUP1 PUSH4 0x8043C9C0 EQ PUSH3 0x2D3 JUMPI DUP1 PUSH4 0x8DA5CB5B EQ PUSH3 0x2FA JUMPI DUP1 PUSH4 0x951E0809 EQ PUSH3 0x32E JUMPI DUP1 PUSH4 0xA64B6E5F EQ PUSH3 0x346 JUMPI DUP1 PUSH4 0xBEC2A7C5 EQ PUSH3 0x36B JUMPI PUSH1 0x0 DUP1 REVERT JUMPDEST DUP1 PUSH4 0x45F2D105 GT PUSH3 0x106 JUMPI DUP1 PUSH4 0x45F2D105 EQ PUSH3 0x21B JUMPI DUP1 PUSH4 0x4BFBE5DF EQ PUSH3 0x266 JUMPI DUP1 PUSH4 0x63A599A4 EQ PUSH3 0x27E JUMPI DUP1 PUSH4 0x715018A6 EQ PUSH3 0x296 JUMPI DUP1 PUSH4 0x73F8FD4B EQ PUSH3 0x2AE JUMPI PUSH1 0x0 DUP1 REVERT JUMPDEST DUP1 PUSH4 0x1F69565F EQ PUSH3 0x148 JUMPI DUP1 PUSH4 0x22EA2231 EQ PUSH3 0x185 JUMPI DUP1 PUSH4 0x22F3E2D4 EQ PUSH3 0x19E JUMPI DUP1 PUSH4 0x24600FC3 EQ PUSH3 0x1CB JUMPI DUP1 PUSH4 0x283F1D7E EQ PUSH3 0x1E3 JUMPI JUMPDEST PUSH1 0x0 DUP1 REVERT JUMPDEST CALLVALUE DUP1 ISZERO PUSH3 0x155 JUMPI PUSH1 0x0 DUP1 REVERT JUMPDEST POP PUSH3 0x16D PUSH3 0x167 CALLDATASIZE PUSH1 0x4 PUSH3 0x11E1 JUMP JUMPDEST PUSH3 0x47F JUMP JUMPDEST PUSH1 0x40 MLOAD PUSH3 0x17C SWAP2 SWAP1 PUSH3 0x124E JUMP JUMPDEST PUSH1 0x40 MLOAD DUP1 SWAP2 SUB SWAP1 RETURN JUMPDEST PUSH3 0x19C PUSH3 0x196 CALLDATASIZE PUSH1 0x4 PUSH3 0x12A8 JUMP JUMPDEST PUSH3 0x5AF JUMP JUMPDEST STOP JUMPDEST CALLVALUE DUP1 ISZERO PUSH3 0x1AB JUMPI PUSH1 0x0 DUP1 REVERT JUMPDEST POP PUSH1 0x4 SLOAD PUSH3 0x1BA SWAP1 PUSH1 0xFF AND DUP2 JUMP JUMPDEST PUSH1 0x40 MLOAD SWAP1 ISZERO ISZERO DUP2 MSTORE PUSH1 0x20 ADD PUSH3 0x17C JUMP JUMPDEST CALLVALUE DUP1 ISZERO PUSH3 0x1D8 JUMPI PUSH1 0x0 DUP1 REVERT JUMPDEST POP PUSH3 0x19C PUSH3 0x880 JUMP JUMPDEST CALLVALUE DUP1 ISZERO PUSH3 0x1F0 JUMPI PUSH1 0x0 DUP1 REVERT JUMPDEST POP PUSH3 0x208 PUSH3 0x202 CALLDATASIZE PUSH1 0x4 PUSH3 0x11E1 JUMP JUMPDEST PUSH3 0x8C7 JUMP JUMPDEST PUSH1 0x40 MLOAD PUSH3 0x17C SWAP6 SWAP5 SWAP4 SWAP3 SWAP2 SWAP1 PUSH3 0x12D5 JUMP JUMPDEST CALLVALUE DUP1 ISZERO PUSH3 0x228 JUMPI PUSH1 0x0 DUP1 REVERT JUMPDEST POP PUSH3 0x257 PUSH3 0x23A CALLDATASIZE PUSH1 0x4 PUSH3 0x1317 JUMP JUMPDEST PUSH1 0x6 PUSH1 0x20 SWAP1 DUP2 MSTORE PUSH1 0x0 SWAP3 DUP4 MSTORE PUSH1 0x40 DUP1 DUP5 KECCAK256 SWAP1 SWAP2 MSTORE SWAP1 DUP3 MSTORE SWAP1 KECCAK256 SLOAD DUP2 JUMP JUMPDEST PUSH1 0x40 MLOAD SWAP1 DUP2 MSTORE PUSH1 0x20 ADD PUSH3 0x17C JUMP JUMPDEST CALLVALUE DUP1 ISZERO PUSH3 0x273 JUMPI PUSH1 0x0 DUP1 REVERT JUMPDEST POP PUSH3 0x257 PUSH1 0x3 SLOAD DUP2 JUMP JUMPDEST CALLVALUE DUP1 ISZERO PUSH3 0x28B JUMPI PUSH1 0x0 DUP1 REVERT JUMPDEST POP PUSH3 0x19C PUSH3 0x990 JUMP JUMPDEST CALLVALUE DUP1 ISZERO PUSH3 0x2A3 JUMPI PUSH1 0x0 DUP1 REVERT JUMPDEST POP PUSH3 0x19C PUSH3 0x9A6 JUMP JUMPDEST CALLVALUE DUP1 ISZERO PUSH3 0x2BB JUMPI PUSH1 0x0 DUP1 REVERT JUMPDEST POP PUSH3 0x257 PUSH3 0x2CD CALLDATASIZE PUSH1 0x4 PUSH3 0x1317 JUMP JUMPDEST PUSH3 0x9BE JUMP JUMPDEST CALLVALUE DUP1 ISZERO PUSH3 0x2E0 JUMPI PUSH1 0x0 DUP1 REVERT JUMPDEST POP PUSH3 0x2EB PUSH3 0x9EB JUMP JUMPDEST PUSH1 0x40 MLOAD PUSH3 0x17C SWAP2 SWAP1 PUSH3 0x134F JUMP JUMPDEST CALLVALUE DUP1 ISZERO PUSH3 0x307 JUMPI PUSH1 0x0 DUP1 REVERT JUMPDEST POP PUSH1 0x1 SLOAD PUSH1 0x1 PUSH1 0x1 PUSH1 0xA0 SHL SUB AND JUMPDEST PUSH1 0x40 MLOAD PUSH1 0x1 PUSH1 0x1 PUSH1 0xA0 SHL SUB SWAP1 SWAP2 AND DUP2 MSTORE PUSH1 0x20 ADD PUSH3 0x17C JUMP JUMPDEST CALLVALUE DUP1 ISZERO PUSH3 0x33B JUMPI PUSH1 0x0 DUP1 REVERT JUMPDEST POP PUSH3 0x19C PUSH3 0xA81 JUMP JUMPDEST CALLVALUE DUP1 ISZERO PUSH3 0x353 JUMPI PUSH1 0x0 DUP1 REVERT JUMPDEST POP PUSH3 0x19C PUSH3 0x365 CALLDATASIZE PUSH1 0x4 PUSH3 0x1364 JUMP JUMPDEST PUSH3 0xA9A JUMP JUMPDEST CALLVALUE DUP1 ISZERO PUSH3 0x378 JUMPI PUSH1 0x0 DUP1 REVERT JUMPDEST POP PUSH3 0x19C PUSH3 0x38A CALLDATASIZE PUSH1 0x4 PUSH3 0x13BB JUMP JUMPDEST PUSH3 0xC53 JUMP JUMPDEST CALLVALUE DUP1 ISZERO PUSH3 0x39D JUMPI PUSH1 0x0 DUP1 REVERT JUMPDEST POP PUSH3 0x19C PUSH3 0x3AF CALLDATASIZE PUSH1 0x4 PUSH3 0x11E1 JUMP JUMPDEST PUSH3 0xDC3 JUMP JUMPDEST CALLVALUE DUP1 ISZERO PUSH3 0x3C2 JUMPI PUSH1 0x0 DUP1 REVERT JUMPDEST POP PUSH3 0x19C PUSH3 0x3D4 CALLDATASIZE PUSH1 0x4 PUSH3 0x12A8 JUMP JUMPDEST PUSH3 0xE19 JUMP JUMPDEST CALLVALUE DUP1 ISZERO PUSH3 0x3E7 JUMPI PUSH1 0x0 DUP1 REVERT JUMPDEST POP PUSH3 0x315 PUSH3 0x3F9 CALLDATASIZE PUSH1 0x4 PUSH3 0x1489 JUMP JUMPDEST PUSH3 0x103A JUMP JUMPDEST CALLVALUE DUP1 ISZERO PUSH3 0x40C JUMPI PUSH1 0x0 DUP1 REVERT JUMPDEST POP PUSH3 0x417 PUSH3 0x1065 JUMP JUMPDEST PUSH1 0x40 MLOAD PUSH3 0x17C SWAP2 SWAP1 PUSH3 0x14A3 JUMP JUMPDEST CALLVALUE DUP1 ISZERO PUSH3 0x433 JUMPI PUSH1 0x0 DUP1 REVERT JUMPDEST POP PUSH3 0x19C PUSH3 0x445 CALLDATASIZE PUSH1 0x4 PUSH3 0x11E1 JUMP JUMPDEST PUSH3 0x10C9 JUMP JUMPDEST CALLVALUE DUP1 ISZERO PUSH3 0x458 JUMPI PUSH1 0x0 DUP1 REVERT JUMPDEST POP PUSH3 0x1BA PUSH3 0x46A CALLDATASIZE PUSH1 0x4 PUSH3 0x11E1 JUMP JUMPDEST PUSH1 0x7 PUSH1 0x20 MSTORE PUSH1 0x0 SWAP1 DUP2 MSTORE PUSH1 0x40 SWAP1 KECCAK256 SLOAD PUSH1 0xFF AND DUP2 JUMP JUMPDEST PUSH3 0x4BB PUSH1 0x40 MLOAD DUP1 PUSH1 0xA0 ADD PUSH1 0x40 MSTORE DUP1 PUSH1 0x60 DUP2 MSTORE PUSH1 0x20 ADD PUSH1 0x0 DUP2 MSTORE PUSH1 0x20 ADD PUSH1 0x0 PUSH1 0x1 PUSH1 0x1 PUSH1 0xA0 SHL SUB AND DUP2 MSTORE PUSH1 0x20 ADD PUSH1 0x0 DUP2 MSTORE PUSH1 0x20 ADD PUSH1 0x0 DUP2 MSTORE POP SWAP1 JUMP JUMPDEST PUSH1 0x1 PUSH1 0x1 PUSH1 0xA0 SHL SUB DUP3 AND PUSH1 0x0 SWAP1 DUP2 MSTORE PUSH1 0x5 PUSH1 0x20 MSTORE PUSH1 0x40 SWAP1 DUP2 SWAP1 KECCAK256 DUP2 MLOAD PUSH1 0xA0 DUP2 ADD SWAP1 SWAP3 MSTORE DUP1 SLOAD DUP3 SWAP1 DUP3 SWAP1 PUSH3 0x4EF SWAP1 PUSH3 0x14F2 JUMP JUMPDEST DUP1 PUSH1 0x1F ADD PUSH1 0x20 DUP1 SWAP2 DIV MUL PUSH1 0x20 ADD PUSH1 0x40 MLOAD SWAP1 DUP2 ADD PUSH1 0x40 MSTORE DUP1 SWAP3 SWAP2 SWAP1 DUP2 DUP2 MSTORE PUSH1 0x20 ADD DUP3 DUP1 SLOAD PUSH3 0x51D SWAP1 PUSH3 0x14F2 JUMP JUMPDEST DUP1 ISZERO PUSH3 0x56E JUMPI DUP1 PUSH1 0x1F LT PUSH3 0x542 JUMPI PUSH2 0x100 DUP1 DUP4 SLOAD DIV MUL DUP4 MSTORE SWAP2 PUSH1 0x20 ADD SWAP2 PUSH3 0x56E JUMP JUMPDEST DUP3 ADD SWAP2 SWAP1 PUSH1 0x0 MSTORE PUSH1 0x20 PUSH1 0x0 KECCAK256 SWAP1 JUMPDEST DUP2 SLOAD DUP2 MSTORE SWAP1 PUSH1 0x1 ADD SWAP1 PUSH1 0x20 ADD DUP1 DUP4 GT PUSH3 0x550 JUMPI DUP3 SWAP1 SUB PUSH1 0x1F AND DUP3 ADD SWAP2 JUMPDEST POP POP POP SWAP2 DUP4 MSTORE POP POP PUSH1 0x1 DUP3 ADD SLOAD PUSH1 0x20 DUP3 ADD MSTORE PUSH1 0x2 DUP3 ADD SLOAD PUSH1 0x1 PUSH1 0x1 PUSH1 0xA0 SHL SUB AND PUSH1 0x40 DUP3 ADD MSTORE PUSH1 0x3 DUP3 ADD SLOAD PUSH1 0x60 DUP3 ADD MSTORE PUSH1 0x4 SWAP1 SWAP2 ADD SLOAD PUSH1 0x80 SWAP1 SWAP2 ADD MSTORE SWAP3 SWAP2 POP POP JUMP JUMPDEST PUSH3 0x5B9 PUSH3 0x110A JUMP JUMPDEST PUSH1 0x4 SLOAD PUSH1 0xFF AND PUSH3 0x607 JUMPI PUSH1 0x40 MLOAD PUSH3 0x461BCD PUSH1 0xE5 SHL DUP2 MSTORE PUSH1 0x20 PUSH1 0x4 DUP3 ADD MSTORE PUSH1 0x13 PUSH1 0x24 DUP3 ADD MSTORE PUSH19 0x4576656E74206973206E6F7420616374697665 PUSH1 0x68 SHL PUSH1 0x44 DUP3 ADD MSTORE PUSH1 0x64 ADD JUMPDEST PUSH1 0x40 MLOAD DUP1 SWAP2 SUB SWAP1 REVERT JUMPDEST PUSH1 0x1 PUSH1 0x1 PUSH1 0xA0 SHL SUB DUP3 DUP2 AND PUSH1 0x0 SWAP1 DUP2 MSTORE PUSH1 0x5 PUSH1 0x20 MSTORE PUSH1 0x40 SWAP1 KECCAK256 PUSH1 0x2 ADD SLOAD AND PUSH3 0x66A JUMPI PUSH1 0x40 MLOAD PUSH3 0x461BCD PUSH1 0xE5 SHL DUP2 MSTORE PUSH1 0x20 PUSH1 0x4 DUP3 ADD MSTORE PUSH1 0x14 PUSH1 0x24 DUP3 ADD MSTORE PUSH20 0x151BDAD95B88191BD95CC81B9BDD08195E1A5CDD PUSH1 0x62 SHL PUSH1 0x44 DUP3 ADD MSTORE PUSH1 0x64 ADD PUSH3 0x5FE JUMP JUMPDEST PUSH1 0x0 DUP2 GT PUSH3 0x68D JUMPI PUSH1 0x40 MLOAD PUSH3 0x461BCD PUSH1 0xE5 SHL DUP2 MSTORE PUSH1 0x4 ADD PUSH3 0x5FE SWAP1 PUSH3 0x152E JUMP JUMPDEST PUSH1 0x1 PUSH1 0x1 PUSH1 0xA0 SHL SUB DUP3 AND PUSH1 0x0 SWAP1 DUP2 MSTORE PUSH1 0x5 PUSH1 0x20 MSTORE PUSH1 0x40 SWAP1 KECCAK256 PUSH1 0x3 DUP2 ADD SLOAD PUSH1 0x4 DUP3 ADD SLOAD PUSH3 0x6BC SWAP1 DUP5 SWAP1 PUSH3 0x157B JUMP JUMPDEST GT ISZERO PUSH3 0x70C JUMPI PUSH1 0x40 MLOAD PUSH3 0x461BCD PUSH1 0xE5 SHL DUP2 MSTORE PUSH1 0x20 PUSH1 0x4 DUP3 ADD MSTORE PUSH1 0x1B PUSH1 0x24 DUP3 ADD MSTORE PUSH32 0x4E6F7420656E6F75676820746F6B656E7320617661696C61626C650000000000 PUSH1 0x44 DUP3 ADD MSTORE PUSH1 0x64 ADD PUSH3 0x5FE JUMP JUMPDEST PUSH1 0x0 PUSH1 0x64 DUP4 DUP4 PUSH1 0x1 ADD SLOAD PUSH3 0x722 SWAP2 SWAP1 PUSH3 0x1591 JUMP JUMPDEST PUSH3 0x736 SWAP1 PUSH8 0xDE0B6B3A7640000 PUSH3 0x1591 JUMP JUMPDEST PUSH3 0x742 SWAP2 SWAP1 PUSH3 0x15AB JUMP JUMPDEST SWAP1 POP DUP1 CALLVALUE LT ISZERO PUSH3 0x78D JUMPI PUSH1 0x40 MLOAD PUSH3 0x461BCD PUSH1 0xE5 SHL DUP2 MSTORE PUSH1 0x20 PUSH1 0x4 DUP3 ADD MSTORE PUSH1 0x14 PUSH1 0x24 DUP3 ADD MSTORE PUSH20 0x125B9CDD59999A58DA595B9D081C185E5B595B9D PUSH1 0x62 SHL PUSH1 0x44 DUP3 ADD MSTORE PUSH1 0x64 ADD PUSH3 0x5FE JUMP JUMPDEST CALLER PUSH1 0x0 SWAP1 DUP2 MSTORE PUSH1 0x6 PUSH1 0x20 SWAP1 DUP2 MSTORE PUSH1 0x40 DUP1 DUP4 KECCAK256 PUSH1 0x1 PUSH1 0x1 PUSH1 0xA0 SHL SUB DUP9 AND DUP5 MSTORE SWAP1 SWAP2 MSTORE DUP2 KECCAK256 DUP1 SLOAD DUP6 SWAP3 SWAP1 PUSH3 0x7C2 SWAP1 DUP5 SWAP1 PUSH3 0x157B JUMP JUMPDEST SWAP3 POP POP DUP2 SWAP1 SSTORE POP DUP3 DUP3 PUSH1 0x4 ADD PUSH1 0x0 DUP3 DUP3 SLOAD PUSH3 0x7DF SWAP2 SWAP1 PUSH3 0x157B JUMP JUMPDEST SWAP1 SWAP2 SSTORE POP POP CALLVALUE DUP2 LT ISZERO PUSH3 0x828 JUMPI CALLER PUSH2 0x8FC PUSH3 0x7FD DUP4 CALLVALUE PUSH3 0x15CE JUMP JUMPDEST PUSH1 0x40 MLOAD DUP2 ISZERO SWAP1 SWAP3 MUL SWAP2 PUSH1 0x0 DUP2 DUP2 DUP2 DUP6 DUP9 DUP9 CALL SWAP4 POP POP POP POP ISZERO DUP1 ISZERO PUSH3 0x826 JUMPI RETURNDATASIZE PUSH1 0x0 DUP1 RETURNDATACOPY RETURNDATASIZE PUSH1 0x0 REVERT JUMPDEST POP JUMPDEST PUSH1 0x40 DUP1 MLOAD DUP5 DUP2 MSTORE PUSH1 0x20 DUP2 ADD DUP4 SWAP1 MSTORE PUSH1 0x1 PUSH1 0x1 PUSH1 0xA0 SHL SUB DUP7 AND SWAP2 CALLER SWAP2 PUSH32 0x6FAF93231A456E552DBC9961F58D9713EE4F2E69D15F1975B050EF0911053A7B SWAP2 ADD JUMPDEST PUSH1 0x40 MLOAD DUP1 SWAP2 SUB SWAP1 LOG3 POP POP PUSH3 0x87C PUSH1 0x1 PUSH1 0x0 SSTORE JUMP JUMPDEST POP POP JUMP JUMPDEST PUSH3 0x88A PUSH3 0x1135 JUMP JUMPDEST PUSH1 0x1 SLOAD PUSH1 0x40 MLOAD PUSH1 0x1 PUSH1 0x1 PUSH1 0xA0 SHL SUB SWAP1 SWAP2 AND SWAP1 SELFBALANCE DUP1 ISZERO PUSH2 0x8FC MUL SWAP2 PUSH1 0x0 DUP2 DUP2 DUP2 DUP6 DUP9 DUP9 CALL SWAP4 POP POP POP POP ISZERO DUP1 ISZERO PUSH3 0x8C4 JUMPI RETURNDATASIZE PUSH1 0x0 DUP1 RETURNDATACOPY RETURNDATASIZE PUSH1 0x0 REVERT JUMPDEST POP JUMP JUMPDEST PUSH1 0x5 PUSH1 0x20 MSTORE PUSH1 0x0 SWAP1 DUP2 MSTORE PUSH1 0x40 SWAP1 KECCAK256 DUP1 SLOAD DUP2 SWAP1 PUSH3 0x8E4 SWAP1 PUSH3 0x14F2 JUMP JUMPDEST DUP1 PUSH1 0x1F ADD PUSH1 0x20 DUP1 SWAP2 DIV MUL PUSH1 0x20 ADD PUSH1 0x40 MLOAD SWAP1 DUP2 ADD PUSH1 0x40 MSTORE DUP1 SWAP3 SWAP2 SWAP1 DUP2 DUP2 MSTORE PUSH1 0x20 ADD DUP3 DUP1 SLOAD PUSH3 0x912 SWAP1 PUSH3 0x14F2 JUMP JUMPDEST DUP1 ISZERO PUSH3 0x963 JUMPI DUP1 PUSH1 0x1F LT PUSH3 0x937 JUMPI PUSH2 0x100 DUP1 DUP4 SLOAD DIV MUL DUP4 MSTORE SWAP2 PUSH1 0x20 ADD SWAP2 PUSH3 0x963 JUMP JUMPDEST DUP3 ADD SWAP2 SWAP1 PUSH1 0x0 MSTORE PUSH1 0x20 PUSH1 0x0 KECCAK256 SWAP1 JUMPDEST DUP2 SLOAD DUP2 MSTORE SWAP1 PUSH1 0x1 ADD SWAP1 PUSH1 0x20 ADD DUP1 DUP4 GT PUSH3 0x945 JUMPI DUP3 SWAP1 SUB PUSH1 0x1F AND DUP3 ADD SWAP2 JUMPDEST POP POP POP POP PUSH1 0x1 DUP4 ADD SLOAD PUSH1 0x2 DUP5 ADD SLOAD PUSH1 0x3 DUP6 ADD SLOAD PUSH1 0x4 SWAP1 SWAP6 ADD SLOAD SWAP4 SWAP5 SWAP2 SWAP4 PUSH1 0x1 PUSH1 0x1 PUSH1 0xA0 SHL SUB SWAP1 SWAP2 AND SWAP3 POP DUP6 JUMP JUMPDEST PUSH3 0x99A PUSH3 0x1135 JUMP JUMPDEST PUSH1 0x4 DUP1 SLOAD PUSH1 0xFF NOT AND SWAP1 SSTORE JUMP JUMPDEST PUSH3 0x9B0 PUSH3 0x1135 JUMP JUMPDEST PUSH3 0x9BC PUSH1 0x0 PUSH3 0x1164 JUMP JUMPDEST JUMP JUMPDEST PUSH1 0x1 PUSH1 0x1 PUSH1 0xA0 SHL SUB DUP1 DUP4 AND PUSH1 0x0 SWAP1 DUP2 MSTORE PUSH1 0x6 PUSH1 0x20 SWAP1 DUP2 MSTORE PUSH1 0x40 DUP1 DUP4 KECCAK256 SWAP4 DUP6 AND DUP4 MSTORE SWAP3 SWAP1 MSTORE KECCAK256 SLOAD JUMPDEST SWAP3 SWAP2 POP POP JUMP JUMPDEST PUSH1 0x2 DUP1 SLOAD PUSH3 0x9FA SWAP1 PUSH3 0x14F2 JUMP JUMPDEST DUP1 PUSH1 0x1F ADD PUSH1 0x20 DUP1 SWAP2 DIV MUL PUSH1 0x20 ADD PUSH1 0x40 MLOAD SWAP1 DUP2 ADD PUSH1 0x40 MSTORE DUP1 SWAP3 SWAP2 SWAP1 DUP2 DUP2 MSTORE PUSH1 0x20 ADD DUP3 DUP1 SLOAD PUSH3 0xA28 SWAP1 PUSH3 0x14F2 JUMP JUMPDEST DUP1 ISZERO PUSH3 0xA79 JUMPI DUP1 PUSH1 0x1F LT PUSH3 0xA4D JUMPI PUSH2 0x100 DUP1 DUP4 SLOAD DIV MUL DUP4 MSTORE SWAP2 PUSH1 0x20 ADD SWAP2 PUSH3 0xA79 JUMP JUMPDEST DUP3 ADD SWAP2 SWAP1 PUSH1 0x0 MSTORE PUSH1 0x20 PUSH1 0x0 KECCAK256 SWAP1 JUMPDEST DUP2 SLOAD DUP2 MSTORE SWAP1 PUSH1 0x1 ADD SWAP1 PUSH1 0x20 ADD DUP1 DUP4 GT PUSH3 0xA5B JUMPI DUP3 SWAP1 SUB PUSH1 0x1F AND DUP3 ADD SWAP2 JUMPDEST POP POP POP POP POP DUP2 JUMP JUMPDEST PUSH3 0xA8B PUSH3 0x1135 JUMP JUMPDEST PUSH1 0x4 DUP1 SLOAD PUSH1 0xFF NOT AND PUSH1 0x1 OR SWAP1 SSTORE JUMP JUMPDEST PUSH3 0xAA4 PUSH3 0x110A JUMP JUMPDEST PUSH1 0x4 SLOAD PUSH1 0xFF AND PUSH3 0xAEE JUMPI PUSH1 0x40 MLOAD PUSH3 0x461BCD PUSH1 0xE5 SHL DUP2 MSTORE PUSH1 0x20 PUSH1 0x4 DUP3 ADD MSTORE PUSH1 0x13 PUSH1 0x24 DUP3 ADD MSTORE PUSH19 0x4576656E74206973206E6F7420616374697665 PUSH1 0x68 SHL PUSH1 0x44 DUP3 ADD MSTORE PUSH1 0x64 ADD PUSH3 0x5FE JUMP JUMPDEST CALLER PUSH1 0x0 SWAP1 DUP2 MSTORE PUSH1 0x6 PUSH1 0x20 SWAP1 DUP2 MSTORE PUSH1 0x40 DUP1 DUP4 KECCAK256 PUSH1 0x1 PUSH1 0x1 PUSH1 0xA0 SHL SUB DUP7 AND DUP5 MSTORE SWAP1 SWAP2 MSTORE SWAP1 KECCAK256 SLOAD DUP2 GT ISZERO PUSH3 0xB63 JUMPI PUSH1 0x40 MLOAD PUSH3 0x461BCD PUSH1 0xE5 SHL DUP2 MSTORE PUSH1 0x20 PUSH1 0x4 DUP3 ADD MSTORE PUSH1 0x1A PUSH1 0x24 DUP3 ADD MSTORE PUSH32 0x496E73756666696369656E7420746F6B656E2062616C616E6365000000000000 PUSH1 0x44 DUP3 ADD MSTORE PUSH1 0x64 ADD PUSH3 0x5FE JUMP JUMPDEST PUSH1 0x0 DUP2 GT PUSH3 0xB86 JUMPI PUSH1 0x40 MLOAD PUSH3 0x461BCD PUSH1 0xE5 SHL DUP2 MSTORE PUSH1 0x4 ADD PUSH3 0x5FE SWAP1 PUSH3 0x152E JUMP JUMPDEST CALLER PUSH1 0x0 SWAP1 DUP2 MSTORE PUSH1 0x6 PUSH1 0x20 SWAP1 DUP2 MSTORE PUSH1 0x40 DUP1 DUP4 KECCAK256 PUSH1 0x1 PUSH1 0x1 PUSH1 0xA0 SHL SUB DUP7 AND DUP5 MSTORE SWAP1 SWAP2 MSTORE DUP2 KECCAK256 DUP1 SLOAD DUP4 SWAP3 SWAP1 PUSH3 0xBBB SWAP1 DUP5 SWAP1 PUSH3 0x15CE JUMP JUMPDEST SWAP1 SWAP2 SSTORE POP POP PUSH1 0x1 PUSH1 0x1 PUSH1 0xA0 SHL SUB DUP1 DUP5 AND PUSH1 0x0 SWAP1 DUP2 MSTORE PUSH1 0x6 PUSH1 0x20 SWAP1 DUP2 MSTORE PUSH1 0x40 DUP1 DUP4 KECCAK256 SWAP4 DUP7 AND DUP4 MSTORE SWAP3 SWAP1 MSTORE SWAP1 DUP2 KECCAK256 DUP1 SLOAD DUP4 SWAP3 SWAP1 PUSH3 0xBF9 SWAP1 DUP5 SWAP1 PUSH3 0x157B JUMP JUMPDEST SWAP1 SWAP2 SSTORE POP POP PUSH1 0x40 MLOAD DUP2 DUP2 MSTORE PUSH1 0x1 PUSH1 0x1 PUSH1 0xA0 SHL SUB DUP1 DUP5 AND SWAP2 SWAP1 DUP6 AND SWAP1 CALLER SWAP1 PUSH32 0x70C5F97FD0068E96984B8116FE83EEFBFF3B91244565BF311A3CBA619B4ECBC7 SWAP1 PUSH1 0x20 ADD PUSH1 0x40 MLOAD DUP1 SWAP2 SUB SWAP1 LOG4 PUSH3 0xC4E PUSH1 0x1 PUSH1 0x0 SSTORE JUMP JUMPDEST POP POP POP JUMP JUMPDEST PUSH3 0xC5D PUSH3 0x1135 JUMP JUMPDEST PUSH1 0x0 DUP4 DUP5 DUP4 ADDRESS PUSH1 0x40 MLOAD PUSH3 0xC71 SWAP1 PUSH3 0x11B6 JUMP JUMPDEST PUSH3 0xC80 SWAP5 SWAP4 SWAP3 SWAP2 SWAP1 PUSH3 0x15E4 JUMP JUMPDEST PUSH1 0x40 MLOAD DUP1 SWAP2 SUB SWAP1 PUSH1 0x0 CREATE DUP1 ISZERO DUP1 ISZERO PUSH3 0xC9D JUMPI RETURNDATASIZE PUSH1 0x0 DUP1 RETURNDATACOPY RETURNDATASIZE PUSH1 0x0 REVERT JUMPDEST POP PUSH1 0x40 DUP1 MLOAD PUSH1 0xA0 DUP2 ADD DUP3 MSTORE DUP7 DUP2 MSTORE PUSH1 0x20 DUP1 DUP3 ADD DUP8 SWAP1 MSTORE PUSH1 0x1 PUSH1 0x1 PUSH1 0xA0 SHL SUB DUP5 AND DUP3 DUP5 ADD DUP2 SWAP1 MSTORE PUSH1 0x60 DUP4 ADD DUP8 SWAP1 MSTORE PUSH1 0x0 PUSH1 0x80 DUP5 ADD DUP2 SWAP1 MSTORE SWAP1 DUP2 MSTORE PUSH1 0x5 SWAP1 SWAP2 MSTORE SWAP2 SWAP1 SWAP2 KECCAK256 DUP2 MLOAD SWAP3 SWAP4 POP DUP4 SWAP3 DUP2 SWAP1 PUSH3 0xCF4 SWAP1 DUP3 PUSH3 0x1681 JUMP JUMPDEST POP PUSH1 0x20 DUP3 ADD MLOAD PUSH1 0x1 DUP1 DUP4 ADD SWAP2 SWAP1 SWAP2 SSTORE PUSH1 0x40 DUP1 DUP5 ADD MLOAD PUSH1 0x2 DUP5 ADD DUP1 SLOAD PUSH1 0x1 PUSH1 0x1 PUSH1 0xA0 SHL SUB SWAP3 DUP4 AND PUSH1 0x1 PUSH1 0x1 PUSH1 0xA0 SHL SUB NOT SWAP2 DUP3 AND OR SWAP1 SWAP2 SSTORE PUSH1 0x60 DUP7 ADD MLOAD PUSH1 0x3 DUP7 ADD SSTORE PUSH1 0x80 SWAP1 SWAP6 ADD MLOAD PUSH1 0x4 SWAP1 SWAP5 ADD SWAP4 SWAP1 SWAP4 SSTORE PUSH1 0x8 DUP1 SLOAD SWAP3 DUP4 ADD DUP2 SSTORE PUSH1 0x0 MSTORE PUSH32 0xF3F7A9FE364FAAB93B216DA50A3214154F22A0A2B415B23A84C8169E8B636EE3 SWAP1 SWAP2 ADD DUP1 SLOAD SWAP3 DUP6 AND SWAP3 SWAP1 SWAP4 AND DUP3 OR SWAP1 SWAP3 SSTORE SWAP1 MLOAD PUSH32 0x245219C91D644A43A38D1479B1E5A7CC4B5C371D7049BFF40DFD12C136C4E72A SWAP1 PUSH3 0xDB4 SWAP1 DUP9 SWAP1 DUP9 SWAP1 PUSH3 0x174E JUMP JUMPDEST PUSH1 0x40 MLOAD DUP1 SWAP2 SUB SWAP1 LOG2 POP POP POP POP POP JUMP JUMPDEST PUSH3 0xDCD PUSH3 0x1135 JUMP JUMPDEST PUSH1 0x1 PUSH1 0x1 PUSH1 0xA0 SHL SUB DUP2 AND PUSH1 0x0 DUP2 DUP2 MSTORE PUSH1 0x7 PUSH1 0x20 MSTORE PUSH1 0x40 DUP1 DUP3 KECCAK256 DUP1 SLOAD PUSH1 0xFF NOT AND PUSH1 0x1 OR SWAP1 SSTORE MLOAD PUSH32 0x3015AE01B4334D1AC8C33010EA96F07356176CA023F850B6AF1656BE900DB250 SWAP2 SWAP1 LOG2 POP JUMP JUMPDEST PUSH3 0xE23 PUSH3 0x110A JUMP JUMPDEST CALLER PUSH1 0x0 SWAP1 DUP2 MSTORE PUSH1 0x6 PUSH1 0x20 SWAP1 DUP2 MSTORE PUSH1 0x40 DUP1 DUP4 KECCAK256 PUSH1 0x1 PUSH1 0x1 PUSH1 0xA0 SHL SUB DUP7 AND DUP5 MSTORE SWAP1 SWAP2 MSTORE SWAP1 KECCAK256 SLOAD DUP2 GT ISZERO PUSH3 0xE98 JUMPI PUSH1 0x40 MLOAD PUSH3 0x461BCD PUSH1 0xE5 SHL DUP2 MSTORE PUSH1 0x20 PUSH1 0x4 DUP3 ADD MSTORE PUSH1 0x1A PUSH1 0x24 DUP3 ADD MSTORE PUSH32 0x496E73756666696369656E7420746F6B656E2062616C616E6365000000000000 PUSH1 0x44 DUP3 ADD MSTORE PUSH1 0x64 ADD PUSH3 0x5FE JUMP JUMPDEST PUSH1 0x0 DUP2 GT PUSH3 0xEBB JUMPI PUSH1 0x40 MLOAD PUSH3 0x461BCD PUSH1 0xE5 SHL DUP2 MSTORE PUSH1 0x4 ADD PUSH3 0x5FE SWAP1 PUSH3 0x152E JUMP JUMPDEST PUSH1 0x1 PUSH1 0x1 PUSH1 0xA0 SHL SUB DUP3 AND PUSH1 0x0 SWAP1 DUP2 MSTORE PUSH1 0x5 PUSH1 0x20 MSTORE PUSH1 0x40 DUP2 KECCAK256 PUSH1 0x1 DUP2 ADD SLOAD SWAP1 SWAP2 SWAP1 PUSH1 0x64 SWAP1 PUSH3 0xEEB SWAP1 DUP6 SWAP1 PUSH3 0x1591 JUMP JUMPDEST PUSH3 0xEFF SWAP1 PUSH8 0xDE0B6B3A7640000 PUSH3 0x1591 JUMP JUMPDEST PUSH3 0xF0B SWAP2 SWAP1 PUSH3 0x15AB JUMP JUMPDEST SWAP1 POP DUP1 SELFBALANCE LT ISZERO PUSH3 0xF70 JUMPI PUSH1 0x40 MLOAD PUSH3 0x461BCD PUSH1 0xE5 SHL DUP2 MSTORE PUSH1 0x20 PUSH1 0x4 DUP3 ADD MSTORE PUSH1 0x28 PUSH1 0x24 DUP3 ADD MSTORE PUSH32 0x496E73756666696369656E7420636F6E74726163742062616C616E636520666F PUSH1 0x44 DUP3 ADD MSTORE PUSH8 0x1C881C99599D5B99 PUSH1 0xC2 SHL PUSH1 0x64 DUP3 ADD MSTORE PUSH1 0x84 ADD PUSH3 0x5FE JUMP JUMPDEST CALLER PUSH1 0x0 SWAP1 DUP2 MSTORE PUSH1 0x6 PUSH1 0x20 SWAP1 DUP2 MSTORE PUSH1 0x40 DUP1 DUP4 KECCAK256 PUSH1 0x1 PUSH1 0x1 PUSH1 0xA0 SHL SUB DUP9 AND DUP5 MSTORE SWAP1 SWAP2 MSTORE DUP2 KECCAK256 DUP1 SLOAD DUP6 SWAP3 SWAP1 PUSH3 0xFA5 SWAP1 DUP5 SWAP1 PUSH3 0x15CE JUMP JUMPDEST SWAP3 POP POP DUP2 SWAP1 SSTORE POP DUP3 DUP3 PUSH1 0x4 ADD PUSH1 0x0 DUP3 DUP3 SLOAD PUSH3 0xFC2 SWAP2 SWAP1 PUSH3 0x15CE JUMP JUMPDEST SWAP1 SWAP2 SSTORE POP POP PUSH1 0x40 MLOAD CALLER SWAP1 DUP3 ISZERO PUSH2 0x8FC MUL SWAP1 DUP4 SWAP1 PUSH1 0x0 DUP2 DUP2 DUP2 DUP6 DUP9 DUP9 CALL SWAP4 POP POP POP POP ISZERO DUP1 ISZERO PUSH3 0xFF5 JUMPI RETURNDATASIZE PUSH1 0x0 DUP1 RETURNDATACOPY RETURNDATASIZE PUSH1 0x0 REVERT JUMPDEST POP PUSH1 0x40 DUP1 MLOAD DUP5 DUP2 MSTORE PUSH1 0x20 DUP2 ADD DUP4 SWAP1 MSTORE PUSH1 0x1 PUSH1 0x1 PUSH1 0xA0 SHL SUB DUP7 AND SWAP2 CALLER SWAP2 PUSH32 0xBB7D7161F80CA4CD98FF0298FF3BA71BB1A2F4E100340B6FC696D6CAA432181 SWAP2 ADD PUSH3 0x867 JUMP JUMPDEST PUSH1 0x8 DUP2 DUP2 SLOAD DUP2 LT PUSH3 0x104B JUMPI PUSH1 0x0 DUP1 REVERT JUMPDEST PUSH1 0x0 SWAP2 DUP3 MSTORE PUSH1 0x20 SWAP1 SWAP2 KECCAK256 ADD SLOAD PUSH1 0x1 PUSH1 0x1 PUSH1 0xA0 SHL SUB AND SWAP1 POP DUP2 JUMP JUMPDEST PUSH1 0x60 PUSH1 0x8 DUP1 SLOAD DUP1 PUSH1 0x20 MUL PUSH1 0x20 ADD PUSH1 0x40 MLOAD SWAP1 DUP2 ADD PUSH1 0x40 MSTORE DUP1 SWAP3 SWAP2 SWAP1 DUP2 DUP2 MSTORE PUSH1 0x20 ADD DUP3 DUP1 SLOAD DUP1 ISZERO PUSH3 0x10BF JUMPI PUSH1 0x20 MUL DUP3 ADD SWAP2 SWAP1 PUSH1 0x0 MSTORE PUSH1 0x20 PUSH1 0x0 KECCAK256 SWAP1 JUMPDEST DUP2 SLOAD PUSH1 0x1 PUSH1 0x1 PUSH1 0xA0 SHL SUB AND DUP2 MSTORE PUSH1 0x1 SWAP1 SWAP2 ADD SWAP1 PUSH1 0x20 ADD DUP1 DUP4 GT PUSH3 0x10A0 JUMPI JUMPDEST POP POP POP POP POP SWAP1 POP SWAP1 JUMP JUMPDEST PUSH3 0x10D3 PUSH3 0x1135 JUMP JUMPDEST PUSH1 0x1 PUSH1 0x1 PUSH1 0xA0 SHL SUB DUP2 AND PUSH3 0x10FF JUMPI PUSH1 0x40 MLOAD PUSH4 0x1E4FBDF7 PUSH1 0xE0 SHL DUP2 MSTORE PUSH1 0x0 PUSH1 0x4 DUP3 ADD MSTORE PUSH1 0x24 ADD PUSH3 0x5FE JUMP JUMPDEST PUSH3 0x8C4 DUP2 PUSH3 0x1164 JUMP JUMPDEST PUSH1 0x2 PUSH1 0x0 SLOAD SUB PUSH3 0x112E JUMPI PUSH1 0x40 MLOAD PUSH4 0x3EE5AEB5 PUSH1 0xE0 SHL DUP2 MSTORE PUSH1 0x4 ADD PUSH1 0x40 MLOAD DUP1 SWAP2 SUB SWAP1 REVERT JUMPDEST PUSH1 0x2 PUSH1 0x0 SSTORE JUMP JUMPDEST PUSH1 0x1 SLOAD PUSH1 0x1 PUSH1 0x1 PUSH1 0xA0 SHL SUB AND CALLER EQ PUSH3 0x9BC JUMPI PUSH1 0x40 MLOAD PUSH4 0x118CDAA7 PUSH1 0xE0 SHL DUP2 MSTORE CALLER PUSH1 0x4 DUP3 ADD MSTORE PUSH1 0x24 ADD PUSH3 0x5FE JUMP JUMPDEST PUSH1 0x1 DUP1 SLOAD PUSH1 0x1 PUSH1 0x1 PUSH1 0xA0 SHL SUB DUP4 DUP2 AND PUSH1 0x1 PUSH1 0x1 PUSH1 0xA0 SHL SUB NOT DUP4 AND DUP2 OR SWAP1 SWAP4 SSTORE PUSH1 0x40 MLOAD SWAP2 AND SWAP2 SWAP1 DUP3 SWAP1 PUSH32 0x8BE0079C531659141344CD1FD0A4F28419497F9722A3DAAFE3B4186F6B6457E0 SWAP1 PUSH1 0x0 SWAP1 LOG3 POP POP JUMP JUMPDEST PUSH2 0xC40 DUP1 PUSH3 0x1773 DUP4 CODECOPY ADD SWAP1 JUMP JUMPDEST DUP1 CALLDATALOAD PUSH1 0x1 PUSH1 0x1 PUSH1 0xA0 SHL SUB DUP2 AND DUP2 EQ PUSH3 0x11DC JUMPI PUSH1 0x0 DUP1 REVERT JUMPDEST SWAP2 SWAP1 POP JUMP JUMPDEST PUSH1 0x0 PUSH1 0x20 DUP3 DUP5 SUB SLT ISZERO PUSH3 0x11F4 JUMPI PUSH1 0x0 DUP1 REVERT JUMPDEST PUSH3 0x11FF DUP3 PUSH3 0x11C4 JUMP JUMPDEST SWAP4 SWAP3 POP POP POP JUMP JUMPDEST PUSH1 0x0 DUP2 MLOAD DUP1 DUP5 MSTORE PUSH1 0x0 JUMPDEST DUP2 DUP2 LT ISZERO PUSH3 0x122E JUMPI PUSH1 0x20 DUP2 DUP6 ADD DUP2 ADD MLOAD DUP7 DUP4 ADD DUP3 ADD MSTORE ADD PUSH3 0x1210 JUMP JUMPDEST POP PUSH1 0x0 PUSH1 0x20 DUP3 DUP7 ADD ADD MSTORE PUSH1 0x20 PUSH1 0x1F NOT PUSH1 0x1F DUP4 ADD AND DUP6 ADD ADD SWAP2 POP POP SWAP3 SWAP2 POP POP JUMP JUMPDEST PUSH1 0x20 DUP2 MSTORE PUSH1 0x0 DUP3 MLOAD PUSH1 0xA0 PUSH1 0x20 DUP5 ADD MSTORE PUSH3 0x126C PUSH1 0xC0 DUP5 ADD DUP3 PUSH3 0x1206 JUMP JUMPDEST SWAP1 POP PUSH1 0x20 DUP5 ADD MLOAD PUSH1 0x40 DUP5 ADD MSTORE PUSH1 0x1 DUP1 PUSH1 0xA0 SHL SUB PUSH1 0x40 DUP6 ADD MLOAD AND PUSH1 0x60 DUP5 ADD MSTORE PUSH1 0x60 DUP5 ADD MLOAD PUSH1 0x80 DUP5 ADD MSTORE PUSH1 0x80 DUP5 ADD MLOAD PUSH1 0xA0 DUP5 ADD MSTORE DUP1 SWAP2 POP POP SWAP3 SWAP2 POP POP JUMP JUMPDEST PUSH1 0x0 DUP1 PUSH1 0x40 DUP4 DUP6 SUB SLT ISZERO PUSH3 0x12BC JUMPI PUSH1 0x0 DUP1 REVERT JUMPDEST PUSH3 0x12C7 DUP4 PUSH3 0x11C4 JUMP JUMPDEST SWAP5 PUSH1 0x20 SWAP4 SWAP1 SWAP4 ADD CALLDATALOAD SWAP4 POP POP POP JUMP JUMPDEST PUSH1 0xA0 DUP2 MSTORE PUSH1 0x0 PUSH3 0x12EA PUSH1 0xA0 DUP4 ADD DUP9 PUSH3 0x1206 JUMP JUMPDEST PUSH1 0x20 DUP4 ADD SWAP7 SWAP1 SWAP7 MSTORE POP PUSH1 0x1 PUSH1 0x1 PUSH1 0xA0 SHL SUB SWAP4 SWAP1 SWAP4 AND PUSH1 0x40 DUP5 ADD MSTORE PUSH1 0x60 DUP4 ADD SWAP2 SWAP1 SWAP2 MSTORE PUSH1 0x80 SWAP1 SWAP2 ADD MSTORE SWAP2 SWAP1 POP JUMP JUMPDEST PUSH1 0x0 DUP1 PUSH1 0x40 DUP4 DUP6 SUB SLT ISZERO PUSH3 0x132B JUMPI PUSH1 0x0 DUP1 REVERT JUMPDEST PUSH3 0x1336 DUP4 PUSH3 0x11C4 JUMP JUMPDEST SWAP2 POP PUSH3 0x1346 PUSH1 0x20 DUP5 ADD PUSH3 0x11C4 JUMP JUMPDEST SWAP1 POP SWAP3 POP SWAP3 SWAP1 POP JUMP JUMPDEST PUSH1 0x20 DUP2 MSTORE PUSH1 0x0 PUSH3 0x11FF PUSH1 0x20 DUP4 ADD DUP5 PUSH3 0x1206 JUMP JUMPDEST PUSH1 0x0 DUP1 PUSH1 0x0 PUSH1 0x60 DUP5 DUP7 SUB SLT ISZERO PUSH3 0x137A JUMPI PUSH1 0x0 DUP1 REVERT JUMPDEST PUSH3 0x1385 DUP5 PUSH3 0x11C4 JUMP JUMPDEST SWAP3 POP PUSH3 0x1395 PUSH1 0x20 DUP6 ADD PUSH3 0x11C4 JUMP JUMPDEST SWAP2 POP PUSH1 0x40 DUP5 ADD CALLDATALOAD SWAP1 POP SWAP3 POP SWAP3 POP SWAP3 JUMP JUMPDEST PUSH4 0x4E487B71 PUSH1 0xE0 SHL PUSH1 0x0 MSTORE PUSH1 0x41 PUSH1 0x4 MSTORE PUSH1 0x24 PUSH1 0x0 REVERT JUMPDEST PUSH1 0x0 DUP1 PUSH1 0x0 PUSH1 0x60 DUP5 DUP7 SUB SLT ISZERO PUSH3 0x13D1 JUMPI PUSH1 0x0 DUP1 REVERT JUMPDEST DUP4 CALLDATALOAD PUSH8 0xFFFFFFFFFFFFFFFF DUP1 DUP3 GT ISZERO PUSH3 0x13EA JUMPI PUSH1 0x0 DUP1 REVERT JUMPDEST DUP2 DUP7 ADD SWAP2 POP DUP7 PUSH1 0x1F DUP4 ADD SLT PUSH3 0x13FF JUMPI PUSH1 0x0 DUP1 REVERT JUMPDEST DUP2 CALLDATALOAD DUP2 DUP2 GT ISZERO PUSH3 0x1414 JUMPI PUSH3 0x1414 PUSH3 0x13A5 JUMP JUMPDEST PUSH1 0x40 MLOAD PUSH1 0x1F DUP3 ADD PUSH1 0x1F NOT SWAP1 DUP2 AND PUSH1 0x3F ADD AND DUP2 ADD SWAP1 DUP4 DUP3 GT DUP2 DUP4 LT OR ISZERO PUSH3 0x143F JUMPI PUSH3 0x143F PUSH3 0x13A5 JUMP JUMPDEST DUP2 PUSH1 0x40 MSTORE DUP3 DUP2 MSTORE DUP10 PUSH1 0x20 DUP5 DUP8 ADD ADD GT ISZERO PUSH3 0x1459 JUMPI PUSH1 0x0 DUP1 REVERT JUMPDEST DUP3 PUSH1 0x20 DUP7 ADD PUSH1 0x20 DUP4 ADD CALLDATACOPY PUSH1 0x0 PUSH1 0x20 DUP5 DUP4 ADD ADD MSTORE DUP1 SWAP8 POP POP POP POP POP POP PUSH1 0x20 DUP5 ADD CALLDATALOAD SWAP2 POP PUSH1 0x40 DUP5 ADD CALLDATALOAD SWAP1 POP SWAP3 POP SWAP3 POP SWAP3 JUMP JUMPDEST PUSH1 0x0 PUSH1 0x20 DUP3 DUP5 SUB SLT ISZERO PUSH3 0x149C JUMPI PUSH1 0x0 DUP1 REVERT JUMPDEST POP CALLDATALOAD SWAP2 SWAP1 POP JUMP JUMPDEST PUSH1 0x20 DUP1 DUP3 MSTORE DUP3 MLOAD DUP3 DUP3 ADD DUP2 SWAP1 MSTORE PUSH1 0x0 SWAP2 SWAP1 DUP5 DUP3 ADD SWAP1 PUSH1 0x40 DUP6 ADD SWAP1 DUP5 JUMPDEST DUP2 DUP2 LT ISZERO PUSH3 0x14E6 JUMPI DUP4 MLOAD PUSH1 0x1 PUSH1 0x1 PUSH1 0xA0 SHL SUB AND DUP4 MSTORE SWAP3 DUP5 ADD SWAP3 SWAP2 DUP5 ADD SWAP2 PUSH1 0x1 ADD PUSH3 0x14BF JUMP JUMPDEST POP SWAP1 SWAP7 SWAP6 POP POP POP POP POP POP JUMP JUMPDEST PUSH1 0x1 DUP2 DUP2 SHR SWAP1 DUP3 AND DUP1 PUSH3 0x1507 JUMPI PUSH1 0x7F DUP3 AND SWAP2 POP JUMPDEST PUSH1 0x20 DUP3 LT DUP2 SUB PUSH3 0x1528 JUMPI PUSH4 0x4E487B71 PUSH1 0xE0 SHL PUSH1 0x0 MSTORE PUSH1 0x22 PUSH1 0x4 MSTORE PUSH1 0x24 PUSH1 0x0 REVERT JUMPDEST POP SWAP2 SWAP1 POP JUMP JUMPDEST PUSH1 0x20 DUP1 DUP3 MSTORE PUSH1 0x1D SWAP1 DUP3 ADD MSTORE PUSH32 0x416D6F756E74206D7573742062652067726561746572207468616E2030000000 PUSH1 0x40 DUP3 ADD MSTORE PUSH1 0x60 ADD SWAP1 JUMP JUMPDEST PUSH4 0x4E487B71 PUSH1 0xE0 SHL PUSH1 0x0 MSTORE PUSH1 0x11 PUSH1 0x4 MSTORE PUSH1 0x24 PUSH1 0x0 REVERT JUMPDEST DUP1 DUP3 ADD DUP1 DUP3 GT ISZERO PUSH3 0x9E5 JUMPI PUSH3 0x9E5 PUSH3 0x1565 JUMP JUMPDEST DUP1 DUP3 MUL DUP2 ISZERO DUP3 DUP3 DIV DUP5 EQ OR PUSH3 0x9E5 JUMPI PUSH3 0x9E5 PUSH3 0x1565 JUMP JUMPDEST PUSH1 0x0 DUP3 PUSH3 0x15C9 JUMPI PUSH4 0x4E487B71 PUSH1 0xE0 SHL PUSH1 0x0 MSTORE PUSH1 0x12 PUSH1 0x4 MSTORE PUSH1 0x24 PUSH1 0x0 REVERT JUMPDEST POP DIV SWAP1 JUMP JUMPDEST DUP2 DUP2 SUB DUP2 DUP2 GT ISZERO PUSH3 0x9E5 JUMPI PUSH3 0x9E5 PUSH3 0x1565 JUMP JUMPDEST PUSH1 0x80 DUP2 MSTORE PUSH1 0x0 PUSH3 0x15F9 PUSH1 0x80 DUP4 ADD DUP8 PUSH3 0x1206 JUMP JUMPDEST DUP3 DUP2 SUB PUSH1 0x20 DUP5 ADD MSTORE PUSH3 0x160D DUP2 DUP8 PUSH3 0x1206 JUMP JUMPDEST PUSH1 0x40 DUP5 ADD SWAP6 SWAP1 SWAP6 MSTORE POP POP PUSH1 0x1 PUSH1 0x1 PUSH1 0xA0 SHL SUB SWAP2 SWAP1 SWAP2 AND PUSH1 0x60 SWAP1 SWAP2 ADD MSTORE SWAP3 SWAP2 POP POP JUMP JUMPDEST PUSH1 0x1F DUP3 GT ISZERO PUSH3 0xC4E JUMPI PUSH1 0x0 DUP2 DUP2 MSTORE PUSH1 0x20 DUP2 KECCAK256 PUSH1 0x1F DUP6 ADD PUSH1 0x5 SHR DUP2 ADD PUSH1 0x20 DUP7 LT ISZERO PUSH3 0x1658 JUMPI POP DUP1 JUMPDEST PUSH1 0x1F DUP6 ADD PUSH1 0x5 SHR DUP3 ADD SWAP2 POP JUMPDEST DUP2 DUP2 LT ISZERO PUSH3 0x1679 JUMPI DUP3 DUP2 SSTORE PUSH1 0x1 ADD PUSH3 0x1664 JUMP JUMPDEST POP POP POP POP POP POP JUMP JUMPDEST DUP2 MLOAD PUSH8 0xFFFFFFFFFFFFFFFF DUP2 GT ISZERO PUSH3 0x169E JUMPI PUSH3 0x169E PUSH3 0x13A5 JUMP JUMPDEST PUSH3 0x16B6 DUP2 PUSH3 0x16AF DUP5 SLOAD PUSH3 0x14F2 JUMP JUMPDEST DUP5 PUSH3 0x162F JUMP JUMPDEST PUSH1 0x20 DUP1 PUSH1 0x1F DUP4 GT PUSH1 0x1 DUP2 EQ PUSH3 0x16EE JUMPI PUSH1 0x0 DUP5 ISZERO PUSH3 0x16D5 JUMPI POP DUP6 DUP4 ADD MLOAD JUMPDEST PUSH1 0x0 NOT PUSH1 0x3 DUP7 SWAP1 SHL SHR NOT AND PUSH1 0x1 DUP6 SWAP1 SHL OR DUP6 SSTORE PUSH3 0x1679 JUMP JUMPDEST PUSH1 0x0 DUP6 DUP2 MSTORE PUSH1 0x20 DUP2 KECCAK256 PUSH1 0x1F NOT DUP7 AND SWAP2 JUMPDEST DUP3 DUP2 LT ISZERO PUSH3 0x171F JUMPI DUP9 DUP7 ADD MLOAD DUP3 SSTORE SWAP5 DUP5 ADD SWAP5 PUSH1 0x1 SWAP1 SWAP2 ADD SWAP1 DUP5 ADD PUSH3 0x16FE JUMP JUMPDEST POP DUP6 DUP3 LT ISZERO PUSH3 0x173E JUMPI DUP8 DUP6 ADD MLOAD PUSH1 0x0 NOT PUSH1 0x3 DUP9 SWAP1 SHL PUSH1 0xF8 AND SHR NOT AND DUP2 SSTORE JUMPDEST POP POP POP POP POP PUSH1 0x1 SWAP1 DUP2 SHL ADD SWAP1 SSTORE POP JUMP JUMPDEST PUSH1 0x40 DUP2 MSTORE PUSH1 0x0 PUSH3 0x1763 PUSH1 0x40 DUP4 ADD DUP6 PUSH3 0x1206 JUMP JUMPDEST SWAP1 POP DUP3 PUSH1 0x20 DUP4 ADD MSTORE SWAP4 SWAP3 POP POP POP JUMP INVALID PUSH1 0x80 PUSH1 0x40 MSTORE CALLVALUE DUP1 ISZERO PUSH3 0x11 JUMPI PUSH1 0x0 DUP1 REVERT JUMPDEST POP PUSH1 0x40 MLOAD PUSH3 0xC40 CODESIZE SUB DUP1 PUSH3 0xC40 DUP4 CODECOPY DUP2 ADD PUSH1 0x40 DUP2 SWAP1 MSTORE PUSH3 0x34 SWAP2 PUSH3 0x2C1 JUMP JUMPDEST DUP4 DUP4 PUSH1 0x3 PUSH3 0x44 DUP4 DUP3 PUSH3 0x3E5 JUMP JUMPDEST POP PUSH1 0x4 PUSH3 0x53 DUP3 DUP3 PUSH3 0x3E5 JUMP JUMPDEST POP POP PUSH1 0x5 DUP1 SLOAD PUSH1 0x1 PUSH1 0x1 PUSH1 0xA0 SHL SUB NOT AND PUSH1 0x1 PUSH1 0x1 PUSH1 0xA0 SHL SUB DUP5 AND OR SWAP1 SSTORE POP PUSH3 0x7D DUP2 DUP4 PUSH3 0x87 JUMP JUMPDEST POP POP POP POP PUSH3 0x4D9 JUMP JUMPDEST PUSH1 0x1 PUSH1 0x1 PUSH1 0xA0 SHL SUB DUP3 AND PUSH3 0xB7 JUMPI PUSH1 0x40 MLOAD PUSH4 0xEC442F05 PUSH1 0xE0 SHL DUP2 MSTORE PUSH1 0x0 PUSH1 0x4 DUP3 ADD MSTORE PUSH1 0x24 ADD JUMPDEST PUSH1 0x40 MLOAD DUP1 SWAP2 SUB SWAP1 REVERT JUMPDEST PUSH3 0xC5 PUSH1 0x0 DUP4 DUP4 PUSH3 0xC9 JUMP JUMPDEST POP POP JUMP JUMPDEST PUSH1 0x1 PUSH1 0x1 PUSH1 0xA0 SHL SUB DUP4 AND PUSH3 0xF8 JUMPI DUP1 PUSH1 0x2 PUSH1 0x0 DUP3 DUP3 SLOAD PUSH3 0xEC SWAP2 SWAP1 PUSH3 0x4B1 JUMP JUMPDEST SWAP1 SWAP2 SSTORE POP PUSH3 0x16C SWAP1 POP JUMP JUMPDEST PUSH1 0x1 PUSH1 0x1 PUSH1 0xA0 SHL SUB DUP4 AND PUSH1 0x0 SWAP1 DUP2 MSTORE PUSH1 0x20 DUP2 SWAP1 MSTORE PUSH1 0x40 SWAP1 KECCAK256 SLOAD DUP2 DUP2 LT ISZERO PUSH3 0x14D JUMPI PUSH1 0x40 MLOAD PUSH4 0x391434E3 PUSH1 0xE2 SHL DUP2 MSTORE PUSH1 0x1 PUSH1 0x1 PUSH1 0xA0 SHL SUB DUP6 AND PUSH1 0x4 DUP3 ADD MSTORE PUSH1 0x24 DUP2 ADD DUP3 SWAP1 MSTORE PUSH1 0x44 DUP2 ADD DUP4 SWAP1 MSTORE PUSH1 0x64 ADD PUSH3 0xAE JUMP JUMPDEST PUSH1 0x1 PUSH1 0x1 PUSH1 0xA0 SHL SUB DUP5 AND PUSH1 0x0 SWAP1 DUP2 MSTORE PUSH1 0x20 DUP2 SWAP1 MSTORE PUSH1 0x40 SWAP1 KECCAK256 SWAP1 DUP3 SWAP1 SUB SWAP1 SSTORE JUMPDEST PUSH1 0x1 PUSH1 0x1 PUSH1 0xA0 SHL SUB DUP3 AND PUSH3 0x18A JUMPI PUSH1 0x2 DUP1 SLOAD DUP3 SWAP1 SUB SWAP1 SSTORE PUSH3 0x1A9 JUMP JUMPDEST PUSH1 0x1 PUSH1 0x1 PUSH1 0xA0 SHL SUB DUP3 AND PUSH1 0x0 SWAP1 DUP2 MSTORE PUSH1 0x20 DUP2 SWAP1 MSTORE PUSH1 0x40 SWAP1 KECCAK256 DUP1 SLOAD DUP3 ADD SWAP1 SSTORE JUMPDEST DUP2 PUSH1 0x1 PUSH1 0x1 PUSH1 0xA0 SHL SUB AND DUP4 PUSH1 0x1 PUSH1 0x1 PUSH1 0xA0 SHL SUB AND PUSH32 0xDDF252AD1BE2C89B69C2B068FC378DAA952BA7F163C4A11628F55A4DF523B3EF DUP4 PUSH1 0x40 MLOAD PUSH3 0x1EF SWAP2 DUP2 MSTORE PUSH1 0x20 ADD SWAP1 JUMP JUMPDEST PUSH1 0x40 MLOAD DUP1 SWAP2 SUB SWAP1 LOG3 POP POP POP JUMP JUMPDEST PUSH4 0x4E487B71 PUSH1 0xE0 SHL PUSH1 0x0 MSTORE PUSH1 0x41 PUSH1 0x4 MSTORE PUSH1 0x24 PUSH1 0x0 REVERT JUMPDEST PUSH1 0x0 DUP3 PUSH1 0x1F DUP4 ADD SLT PUSH3 0x224 JUMPI PUSH1 0x0 DUP1 REVERT JUMPDEST DUP2 MLOAD PUSH1 0x1 PUSH1 0x1 PUSH1 0x40 SHL SUB DUP1 DUP3 GT ISZERO PUSH3 0x241 JUMPI PUSH3 0x241 PUSH3 0x1FC JUMP JUMPDEST PUSH1 0x40 MLOAD PUSH1 0x1F DUP4 ADD PUSH1 0x1F NOT SWAP1 DUP2 AND PUSH1 0x3F ADD AND DUP2 ADD SWAP1 DUP3 DUP3 GT DUP2 DUP4 LT OR ISZERO PUSH3 0x26C JUMPI PUSH3 0x26C PUSH3 0x1FC JUMP JUMPDEST DUP2 PUSH1 0x40 MSTORE DUP4 DUP2 MSTORE PUSH1 0x20 SWAP3 POP DUP7 DUP4 DUP6 DUP9 ADD ADD GT ISZERO PUSH3 0x289 JUMPI PUSH1 0x0 DUP1 REVERT JUMPDEST PUSH1 0x0 SWAP2 POP JUMPDEST DUP4 DUP3 LT ISZERO PUSH3 0x2AD JUMPI DUP6 DUP3 ADD DUP4 ADD MLOAD DUP2 DUP4 ADD DUP5 ADD MSTORE SWAP1 DUP3 ADD SWAP1 PUSH3 0x28E JUMP JUMPDEST PUSH1 0x0 SWAP4 DUP2 ADD SWAP1 SWAP3 ADD SWAP3 SWAP1 SWAP3 MSTORE SWAP5 SWAP4 POP POP POP POP JUMP JUMPDEST PUSH1 0x0 DUP1 PUSH1 0x0 DUP1 PUSH1 0x80 DUP6 DUP8 SUB SLT ISZERO PUSH3 0x2D8 JUMPI PUSH1 0x0 DUP1 REVERT JUMPDEST DUP5 MLOAD PUSH1 0x1 PUSH1 0x1 PUSH1 0x40 SHL SUB DUP1 DUP3 GT ISZERO PUSH3 0x2F0 JUMPI PUSH1 0x0 DUP1 REVERT JUMPDEST PUSH3 0x2FE DUP9 DUP4 DUP10 ADD PUSH3 0x212 JUMP JUMPDEST SWAP6 POP PUSH1 0x20 DUP8 ADD MLOAD SWAP2 POP DUP1 DUP3 GT ISZERO PUSH3 0x315 JUMPI PUSH1 0x0 DUP1 REVERT JUMPDEST POP PUSH3 0x324 DUP8 DUP3 DUP9 ADD PUSH3 0x212 JUMP JUMPDEST PUSH1 0x40 DUP8 ADD MLOAD PUSH1 0x60 DUP9 ADD MLOAD SWAP2 SWAP6 POP SWAP4 POP SWAP1 POP PUSH1 0x1 PUSH1 0x1 PUSH1 0xA0 SHL SUB DUP2 AND DUP2 EQ PUSH3 0x34B JUMPI PUSH1 0x0 DUP1 REVERT JUMPDEST SWAP4 SWAP7 SWAP3 SWAP6 POP SWAP1 SWAP4 POP POP JUMP JUMPDEST PUSH1 0x1 DUP2 DUP2 SHR SWAP1 DUP3 AND DUP1 PUSH3 0x36B JUMPI PUSH1 0x7F DUP3 AND SWAP2 POP JUMPDEST PUSH1 0x20 DUP3 LT DUP2 SUB PUSH3 0x38C JUMPI PUSH4 0x4E487B71 PUSH1 0xE0 SHL PUSH1 0x0 MSTORE PUSH1 0x22 PUSH1 0x4 MSTORE PUSH1 0x24 PUSH1 0x0 REVERT JUMPDEST POP SWAP2 SWAP1 POP JUMP JUMPDEST PUSH1 0x1F DUP3 GT ISZERO PUSH3 0x3E0 JUMPI PUSH1 0x0 DUP2 DUP2 MSTORE PUSH1 0x20 DUP2 KECCAK256 PUSH1 0x1F DUP6 ADD PUSH1 0x5 SHR DUP2 ADD PUSH1 0x20 DUP7 LT ISZERO PUSH3 0x3BB JUMPI POP DUP1 JUMPDEST PUSH1 0x1F DUP6 ADD PUSH1 0x5 SHR DUP3 ADD SWAP2 POP JUMPDEST DUP2 DUP2 LT ISZERO PUSH3 0x3DC JUMPI DUP3 DUP2 SSTORE PUSH1 0x1 ADD PUSH3 0x3C7 JUMP JUMPDEST POP POP POP JUMPDEST POP POP POP JUMP JUMPDEST DUP2 MLOAD PUSH1 0x1 PUSH1 0x1 PUSH1 0x40 SHL SUB DUP2 GT ISZERO PUSH3 0x401 JUMPI PUSH3 0x401 PUSH3 0x1FC JUMP JUMPDEST PUSH3 0x419 DUP2 PUSH3 0x412 DUP5 SLOAD PUSH3 0x356 JUMP JUMPDEST DUP5 PUSH3 0x392 JUMP JUMPDEST PUSH1 0x20 DUP1 PUSH1 0x1F DUP4 GT PUSH1 0x1 DUP2 EQ PUSH3 0x451 JUMPI PUSH1 0x0 DUP5 ISZERO PUSH3 0x438 JUMPI POP DUP6 DUP4 ADD MLOAD JUMPDEST PUSH1 0x0 NOT PUSH1 0x3 DUP7 SWAP1 SHL SHR NOT AND PUSH1 0x1 DUP6 SWAP1 SHL OR DUP6 SSTORE PUSH3 0x3DC JUMP JUMPDEST PUSH1 0x0 DUP6 DUP2 MSTORE PUSH1 0x20 DUP2 KECCAK256 PUSH1 0x1F NOT DUP7 AND SWAP2 JUMPDEST DUP3 DUP2 LT ISZERO PUSH3 0x482 JUMPI DUP9 DUP7 ADD MLOAD DUP3 SSTORE SWAP5 DUP5 ADD SWAP5 PUSH1 0x1 SWAP1 SWAP2 ADD SWAP1 DUP5 ADD PUSH3 0x461 JUMP JUMPDEST POP DUP6 DUP3 LT ISZERO PUSH3 0x4A1 JUMPI DUP8 DUP6 ADD MLOAD PUSH1 0x0 NOT PUSH1 0x3 DUP9 SWAP1 SHL PUSH1 0xF8 AND SHR NOT AND DUP2 SSTORE JUMPDEST POP POP POP POP POP PUSH1 0x1 SWAP1 DUP2 SHL ADD SWAP1 SSTORE POP JUMP JUMPDEST DUP1 DUP3 ADD DUP1 DUP3 GT ISZERO PUSH3 0x4D3 JUMPI PUSH4 0x4E487B71 PUSH1 0xE0 SHL PUSH1 0x0 MSTORE PUSH1 0x11 PUSH1 0x4 MSTORE PUSH1 0x24 PUSH1 0x0 REVERT JUMPDEST SWAP3 SWAP2 POP POP JUMP JUMPDEST PUSH2 0x757 DUP1 PUSH3 0x4E9 PUSH1 0x0 CODECOPY PUSH1 0x0 RETURN INVALID PUSH1 0x80 PUSH1 0x40 MSTORE CALLVALUE DUP1 ISZERO PUSH2 0x10 JUMPI PUSH1 0x0 DUP1 REVERT JUMPDEST POP PUSH1 0x4 CALLDATASIZE LT PUSH2 0x9E JUMPI PUSH1 0x0 CALLDATALOAD PUSH1 0xE0 SHR DUP1 PUSH4 0x70A08231 GT PUSH2 0x66 JUMPI DUP1 PUSH4 0x70A08231 EQ PUSH2 0x118 JUMPI DUP1 PUSH4 0x95D89B41 EQ PUSH2 0x141 JUMPI DUP1 PUSH4 0xA9059CBB EQ PUSH2 0x149 JUMPI DUP1 PUSH4 0xDD62ED3E EQ PUSH2 0x15C JUMPI DUP1 PUSH4 0xE274FD24 EQ PUSH2 0x195 JUMPI PUSH1 0x0 DUP1 REVERT JUMPDEST DUP1 PUSH4 0x6FDDE03 EQ PUSH2 0xA3 JUMPI DUP1 PUSH4 0x95EA7B3 EQ PUSH2 0xC1 JUMPI DUP1 PUSH4 0x18160DDD EQ PUSH2 0xE4 JUMPI DUP1 PUSH4 0x23B872DD EQ PUSH2 0xF6 JUMPI DUP1 PUSH4 0x313CE567 EQ PUSH2 0x109 JUMPI JUMPDEST PUSH1 0x0 DUP1 REVERT JUMPDEST PUSH2 0xAB PUSH2 0x1C0 JUMP JUMPDEST PUSH1 0x40 MLOAD PUSH2 0xB8 SWAP2 SWAP1 PUSH2 0x5A1 JUMP JUMPDEST PUSH1 0x40 MLOAD DUP1 SWAP2 SUB SWAP1 RETURN JUMPDEST PUSH2 0xD4 PUSH2 0xCF CALLDATASIZE PUSH1 0x4 PUSH2 0x60B JUMP JUMPDEST PUSH2 0x252 JUMP JUMPDEST PUSH1 0x40 MLOAD SWAP1 ISZERO ISZERO DUP2 MSTORE PUSH1 0x20 ADD PUSH2 0xB8 JUMP JUMPDEST PUSH1 0x2 SLOAD JUMPDEST PUSH1 0x40 MLOAD SWAP1 DUP2 MSTORE PUSH1 0x20 ADD PUSH2 0xB8 JUMP JUMPDEST PUSH2 0xD4 PUSH2 0x104 CALLDATASIZE PUSH1 0x4 PUSH2 0x635 JUMP JUMPDEST PUSH2 0x26C JUMP JUMPDEST PUSH1 0x40 MLOAD PUSH1 0x12 DUP2 MSTORE PUSH1 0x20 ADD PUSH2 0xB8 JUMP JUMPDEST PUSH2 0xE8 PUSH2 0x126 CALLDATASIZE PUSH1 0x4 PUSH2 0x671 JUMP JUMPDEST PUSH1 0x1 PUSH1 0x1 PUSH1 0xA0 SHL SUB AND PUSH1 0x0 SWAP1 DUP2 MSTORE PUSH1 0x20 DUP2 SWAP1 MSTORE PUSH1 0x40 SWAP1 KECCAK256 SLOAD SWAP1 JUMP JUMPDEST PUSH2 0xAB PUSH2 0x290 JUMP JUMPDEST PUSH2 0xD4 PUSH2 0x157 CALLDATASIZE PUSH1 0x4 PUSH2 0x60B JUMP JUMPDEST PUSH2 0x29F JUMP JUMPDEST PUSH2 0xE8 PUSH2 0x16A CALLDATASIZE PUSH1 0x4 PUSH2 0x693 JUMP JUMPDEST PUSH1 0x1 PUSH1 0x1 PUSH1 0xA0 SHL SUB SWAP2 DUP3 AND PUSH1 0x0 SWAP1 DUP2 MSTORE PUSH1 0x1 PUSH1 0x20 SWAP1 DUP2 MSTORE PUSH1 0x40 DUP1 DUP4 KECCAK256 SWAP4 SWAP1 SWAP5 AND DUP3 MSTORE SWAP2 SWAP1 SWAP2 MSTORE KECCAK256 SLOAD SWAP1 JUMP JUMPDEST PUSH1 0x5 SLOAD PUSH2 0x1A8 SWAP1 PUSH1 0x1 PUSH1 0x1 PUSH1 0xA0 SHL SUB AND DUP2 JUMP JUMPDEST PUSH1 0x40 MLOAD PUSH1 0x1 PUSH1 0x1 PUSH1 0xA0 SHL SUB SWAP1 SWAP2 AND DUP2 MSTORE PUSH1 0x20 ADD PUSH2 0xB8 JUMP JUMPDEST PUSH1 0x60 PUSH1 0x3 DUP1 SLOAD PUSH2 0x1CF SWAP1 PUSH2 0x6C6 JUMP JUMPDEST DUP1 PUSH1 0x1F ADD PUSH1 0x20 DUP1 SWAP2 DIV MUL PUSH1 0x20 ADD PUSH1 0x40 MLOAD SWAP1 DUP2 ADD PUSH1 0x40 MSTORE DUP1 SWAP3 SWAP2 SWAP1 DUP2 DUP2 MSTORE PUSH1 0x20 ADD DUP3 DUP1 SLOAD PUSH2 0x1FB SWAP1 PUSH2 0x6C6 JUMP JUMPDEST DUP1 ISZERO PUSH2 0x248 JUMPI DUP1 PUSH1 0x1F LT PUSH2 0x21D JUMPI PUSH2 0x100 DUP1 DUP4 SLOAD DIV MUL DUP4 MSTORE SWAP2 PUSH1 0x20 ADD SWAP2 PUSH2 0x248 JUMP JUMPDEST DUP3 ADD SWAP2 SWAP1 PUSH1 0x0 MSTORE PUSH1 0x20 PUSH1 0x0 KECCAK256 SWAP1 JUMPDEST DUP2 SLOAD DUP2 MSTORE SWAP1 PUSH1 0x1 ADD SWAP1 PUSH1 0x20 ADD DUP1 DUP4 GT PUSH2 0x22B JUMPI DUP3 SWAP1 SUB PUSH1 0x1F AND DUP3 ADD SWAP2 JUMPDEST POP POP POP POP POP SWAP1 POP SWAP1 JUMP JUMPDEST PUSH1 0x0 CALLER PUSH2 0x260 DUP2 DUP6 DUP6 PUSH2 0x2AD JUMP JUMPDEST PUSH1 0x1 SWAP2 POP POP JUMPDEST SWAP3 SWAP2 POP POP JUMP JUMPDEST PUSH1 0x0 CALLER PUSH2 0x27A DUP6 DUP3 DUP6 PUSH2 0x2BF JUMP JUMPDEST PUSH2 0x285 DUP6 DUP6 DUP6 PUSH2 0x343 JUMP JUMPDEST POP PUSH1 0x1 SWAP5 SWAP4 POP POP POP POP JUMP JUMPDEST PUSH1 0x60 PUSH1 0x4 DUP1 SLOAD PUSH2 0x1CF SWAP1 PUSH2 0x6C6 JUMP JUMPDEST PUSH1 0x0 CALLER PUSH2 0x260 DUP2 DUP6 DUP6 PUSH2 0x343 JUMP JUMPDEST PUSH2 0x2BA DUP4 DUP4 DUP4 PUSH1 0x1 PUSH2 0x3A2 JUMP JUMPDEST POP POP POP JUMP JUMPDEST PUSH1 0x1 PUSH1 0x1 PUSH1 0xA0 SHL SUB DUP4 DUP2 AND PUSH1 0x0 SWAP1 DUP2 MSTORE PUSH1 0x1 PUSH1 0x20 SWAP1 DUP2 MSTORE PUSH1 0x40 DUP1 DUP4 KECCAK256 SWAP4 DUP7 AND DUP4 MSTORE SWAP3 SWAP1 MSTORE KECCAK256 SLOAD PUSH1 0x0 NOT DUP2 LT ISZERO PUSH2 0x33D JUMPI DUP2 DUP2 LT ISZERO PUSH2 0x32E JUMPI PUSH1 0x40 MLOAD PUSH4 0x7DC7A0D9 PUSH1 0xE1 SHL DUP2 MSTORE PUSH1 0x1 PUSH1 0x1 PUSH1 0xA0 SHL SUB DUP5 AND PUSH1 0x4 DUP3 ADD MSTORE PUSH1 0x24 DUP2 ADD DUP3 SWAP1 MSTORE PUSH1 0x44 DUP2 ADD DUP4 SWAP1 MSTORE PUSH1 0x64 ADD JUMPDEST PUSH1 0x40 MLOAD DUP1 SWAP2 SUB SWAP1 REVERT JUMPDEST PUSH2 0x33D DUP5 DUP5 DUP5 DUP5 SUB PUSH1 0x0 PUSH2 0x3A2 JUMP JUMPDEST POP POP POP POP JUMP JUMPDEST PUSH1 0x1 PUSH1 0x1 PUSH1 0xA0 SHL SUB DUP4 AND PUSH2 0x36D JUMPI PUSH1 0x40 MLOAD PUSH4 0x4B637E8F PUSH1 0xE1 SHL DUP2 MSTORE PUSH1 0x0 PUSH1 0x4 DUP3 ADD MSTORE PUSH1 0x24 ADD PUSH2 0x325 JUMP JUMPDEST PUSH1 0x1 PUSH1 0x1 PUSH1 0xA0 SHL SUB DUP3 AND PUSH2 0x397 JUMPI PUSH1 0x40 MLOAD PUSH4 0xEC442F05 PUSH1 0xE0 SHL DUP2 MSTORE PUSH1 0x0 PUSH1 0x4 DUP3 ADD MSTORE PUSH1 0x24 ADD PUSH2 0x325 JUMP JUMPDEST PUSH2 0x2BA DUP4 DUP4 DUP4 PUSH2 0x477 JUMP JUMPDEST PUSH1 0x1 PUSH1 0x1 PUSH1 0xA0 SHL SUB DUP5 AND PUSH2 0x3CC JUMPI PUSH1 0x40 MLOAD PUSH4 0xE602DF05 PUSH1 0xE0 SHL DUP2 MSTORE PUSH1 0x0 PUSH1 0x4 DUP3 ADD MSTORE PUSH1 0x24 ADD PUSH2 0x325 JUMP JUMPDEST PUSH1 0x1 PUSH1 0x1 PUSH1 0xA0 SHL SUB DUP4 AND PUSH2 0x3F6 JUMPI PUSH1 0x40 MLOAD PUSH4 0x4A1406B1 PUSH1 0xE1 SHL DUP2 MSTORE PUSH1 0x0 PUSH1 0x4 DUP3 ADD MSTORE PUSH1 0x24 ADD PUSH2 0x325 JUMP JUMPDEST PUSH1 0x1 PUSH1 0x1 PUSH1 0xA0 SHL SUB DUP1 DUP6 AND PUSH1 0x0 SWAP1 DUP2 MSTORE PUSH1 0x1 PUSH1 0x20 SWAP1 DUP2 MSTORE PUSH1 0x40 DUP1 DUP4 KECCAK256 SWAP4 DUP8 AND DUP4 MSTORE SWAP3 SWAP1 MSTORE KECCAK256 DUP3 SWAP1 SSTORE DUP1 ISZERO PUSH2 0x33D JUMPI DUP3 PUSH1 0x1 PUSH1 0x1 PUSH1 0xA0 SHL SUB AND DUP5 PUSH1 0x1 PUSH1 0x1 PUSH1 0xA0 SHL SUB AND PUSH32 0x8C5BE1E5EBEC7D5BD14F71427D1E84F3DD0314C0F7B2291E5B200AC8C7C3B925 DUP5 PUSH1 0x40 MLOAD PUSH2 0x469 SWAP2 DUP2 MSTORE PUSH1 0x20 ADD SWAP1 JUMP JUMPDEST PUSH1 0x40 MLOAD DUP1 SWAP2 SUB SWAP1 LOG3 POP POP POP POP JUMP JUMPDEST PUSH1 0x1 PUSH1 0x1 PUSH1 0xA0 SHL SUB DUP4 AND PUSH2 0x4A2 JUMPI DUP1 PUSH1 0x2 PUSH1 0x0 DUP3 DUP3 SLOAD PUSH2 0x497 SWAP2 SWAP1 PUSH2 0x700 JUMP JUMPDEST SWAP1 SWAP2 SSTORE POP PUSH2 0x514 SWAP1 POP JUMP JUMPDEST PUSH1 0x1 PUSH1 0x1 PUSH1 0xA0 SHL SUB DUP4 AND PUSH1 0x0 SWAP1 DUP2 MSTORE PUSH1 0x20 DUP2 SWAP1 MSTORE PUSH1 0x40 SWAP1 KECCAK256 SLOAD DUP2 DUP2 LT ISZERO PUSH2 0x4F5 JUMPI PUSH1 0x40 MLOAD PUSH4 0x391434E3 PUSH1 0xE2 SHL DUP2 MSTORE PUSH1 0x1 PUSH1 0x1 PUSH1 0xA0 SHL SUB DUP6 AND PUSH1 0x4 DUP3 ADD MSTORE PUSH1 0x24 DUP2 ADD DUP3 SWAP1 MSTORE PUSH1 0x44 DUP2 ADD DUP4 SWAP1 MSTORE PUSH1 0x64 ADD PUSH2 0x325 JUMP JUMPDEST PUSH1 0x1 PUSH1 0x1 PUSH1 0xA0 SHL SUB DUP5 AND PUSH1 0x0 SWAP1 DUP2 MSTORE PUSH1 0x20 DUP2 SWAP1 MSTORE PUSH1 0x40 SWAP1 KECCAK256 SWAP1 DUP3 SWAP1 SUB SWAP1 SSTORE JUMPDEST PUSH1 0x1 PUSH1 0x1 PUSH1 0xA0 SHL SUB DUP3 AND PUSH2 0x530 JUMPI PUSH1 0x2 DUP1 SLOAD DUP3 SWAP1 SUB SWAP1 SSTORE PUSH2 0x54F JUMP JUMPDEST PUSH1 0x1 PUSH1 0x1 PUSH1 0xA0 SHL SUB DUP3 AND PUSH1 0x0 SWAP1 DUP2 MSTORE PUSH1 0x20 DUP2 SWAP1 MSTORE PUSH1 0x40 SWAP1 KECCAK256 DUP1 SLOAD DUP3 ADD SWAP1 SSTORE JUMPDEST DUP2 PUSH1 0x1 PUSH1 0x1 PUSH1 0xA0 SHL SUB AND DUP4 PUSH1 0x1 PUSH1 0x1 PUSH1 0xA0 SHL SUB AND PUSH32 0xDDF252AD1BE2C89B69C2B068FC378DAA952BA7F163C4A11628F55A4DF523B3EF DUP4 PUSH1 0x40 MLOAD PUSH2 0x594 SWAP2 DUP2 MSTORE PUSH1 0x20 ADD SWAP1 JUMP JUMPDEST PUSH1 0x40 MLOAD DUP1 SWAP2 SUB SWAP1 LOG3 POP POP POP JUMP JUMPDEST PUSH1 0x0 PUSH1 0x20 DUP1 DUP4 MSTORE DUP4 MLOAD DUP1 DUP3 DUP6 ADD MSTORE PUSH1 0x0 JUMPDEST DUP2 DUP2 LT ISZERO PUSH2 0x5CE JUMPI DUP6 DUP2 ADD DUP4 ADD MLOAD DUP6 DUP3 ADD PUSH1 0x40 ADD MSTORE DUP3 ADD PUSH2 0x5B2 JUMP JUMPDEST POP PUSH1 0x0 PUSH1 0x40 DUP3 DUP7 ADD ADD MSTORE PUSH1 0x40 PUSH1 0x1F NOT PUSH1 0x1F DUP4 ADD AND DUP6 ADD ADD SWAP3 POP POP POP SWAP3 SWAP2 POP POP JUMP JUMPDEST DUP1 CALLDATALOAD PUSH1 0x1 PUSH1 0x1 PUSH1 0xA0 SHL SUB DUP2 AND DUP2 EQ PUSH2 0x606 JUMPI PUSH1 0x0 DUP1 REVERT JUMPDEST SWAP2 SWAP1 POP JUMP JUMPDEST PUSH1 0x0 DUP1 PUSH1 0x40 DUP4 DUP6 SUB SLT ISZERO PUSH2 0x61E JUMPI PUSH1 0x0 DUP1 REVERT JUMPDEST PUSH2 0x627 DUP4 PUSH2 0x5EF JUMP JUMPDEST SWAP5 PUSH1 0x20 SWAP4 SWAP1 SWAP4 ADD CALLDATALOAD SWAP4 POP POP POP JUMP JUMPDEST PUSH1 0x0 DUP1 PUSH1 0x0 PUSH1 0x60 DUP5 DUP7 SUB SLT ISZERO PUSH2 0x64A JUMPI PUSH1 0x0 DUP1 REVERT JUMPDEST PUSH2 0x653 DUP5 PUSH2 0x5EF JUMP JUMPDEST SWAP3 POP PUSH2 0x661 PUSH1 0x20 DUP6 ADD PUSH2 0x5EF JUMP JUMPDEST SWAP2 POP PUSH1 0x40 DUP5 ADD CALLDATALOAD SWAP1 POP SWAP3 POP SWAP3 POP SWAP3 JUMP JUMPDEST PUSH1 0x0 PUSH1 0x20 DUP3 DUP5 SUB SLT ISZERO PUSH2 0x683 JUMPI PUSH1 0x0 DUP1 REVERT JUMPDEST PUSH2 0x68C DUP3 PUSH2 0x5EF JUMP JUMPDEST SWAP4 SWAP3 POP POP POP JUMP JUMPDEST PUSH1 0x0 DUP1 PUSH1 0x40 DUP4 DUP6 SUB SLT ISZERO PUSH2 0x6A6 JUMPI PUSH1 0x0 DUP1 REVERT JUMPDEST PUSH2 0x6AF DUP4 PUSH2 0x5EF JUMP JUMPDEST SWAP2 POP PUSH2 0x6BD PUSH1 0x20 DUP5 ADD PUSH2 0x5EF JUMP JUMPDEST SWAP1 POP SWAP3 POP SWAP3 SWAP1 POP JUMP JUMPDEST PUSH1 0x1 DUP2 DUP2 SHR SWAP1 DUP3 AND DUP1 PUSH2 0x6DA JUMPI PUSH1 0x7F DUP3 AND SWAP2 POP JUMPDEST PUSH1 0x20 DUP3 LT DUP2 SUB PUSH2 0x6FA JUMPI PUSH4 0x4E487B71 PUSH1 0xE0 SHL PUSH1 0x0 MSTORE PUSH1 0x22 PUSH1 0x4 MSTORE PUSH1 0x24 PUSH1 0x0 REVERT JUMPDEST POP SWAP2 SWAP1 POP JUMP JUMPDEST DUP1 DUP3 ADD DUP1 DUP3 GT ISZERO PUSH2 0x266 JUMPI PUSH4 0x4E487B71 PUSH1 0xE0 SHL PUSH1 0x0 MSTORE PUSH1 0x11 PUSH1 0x4 MSTORE PUSH1 0x24 PUSH1 0x0 REVERT INVALID LOG2 PUSH5 0x6970667358 0x22 SLT KECCAK256 0x21 0xDD 0xFC MOD 0xD2 SAR NUMBER 0xDC 0xDE 0x4D COINBASE GASPRICE 0xD9 0x5E 0xD4 0xE7 SUB CHAINID MSTORE8 0xA7 CALLDATACOPY 0xD PUSH26 0xBAF184B2665DDC30C064736F6C63430008140033A26469706673 PC 0x22 SLT KECCAK256 0xEB 0xD7 0xA9 PUSH6 0x985A863EF706 PUSH15 0x6CAD839C720865CB9F00B920F1C0C 0x24 0x2F 0xBB 0xF8 PUSH24 0x6D64736F6C63430008140033000000000000000000000000 "},"methodIdentifiers":{"authorizeVendor(address)":"caca97e5","authorizedVendors(address)":"f7793862","createToken(string,uint256,uint256)":"bec2a7c5","emergencyStop()":"63a599a4","eventDate()":"4bfbe5df","eventName()":"8043c9c0","eventTokens(address)":"283f1d7e","getTokenAddresses()":"ee8c24b8","getTokenInfo(address)":"1f69565f","getUserTokenBalance(address,address)":"73f8fd4b","isActive()":"22f3e2d4","owner()":"8da5cb5b","purchaseTokens(address,uint256)":"22ea2231","redeemTokens(address,uint256)":"dad7f110","renounceOwnership()":"715018a6","restartEvent()":"951e0809","tokenAddresses(uint256)":"e5df8b84","transferOwnership(address)":"f2fde38b","transferTokens(address,address,uint256)":"a64b6e5f","userTokenBalances(address,address)":"45f2d105","withdrawFunds()":"24600fc3"}}}}}